{"bytecode":"608060405234801561001057600080fd5b50604051610f4a380380610f4a83398101604081905261002f916100b8565b61003833610068565b600580546001600160a01b0390921664010000000002600160201b600160c01b03199092169190911790556100e8565b600080546001600160a01b038381166001600160a01b0319831681178455604051919092169283917f8be0079c531659141344cd1fd0a4f28419497f9722a3daafe3b4186f6b6457e09190a35050565b6000602082840312156100ca57600080fd5b81516001600160a01b03811681146100e157600080fd5b9392505050565b610e53806100f76000396000f3fe6080604052600436106100f35760003560e01c806384c228e61161008a578063b06a5c5211610059578063b06a5c521461031f578063d61588eb1461033c578063eaaea05c1461035c578063f2fde38b1461037c57600080fd5b806384c228e6146102ad5780638d583d36146102d95780638da5cb5b146102ee578063a638f2e21461030c57600080fd5b8063372500ab116100c6578063372500ab146101bb5780634612e609146101c3578063715018a61461026857806381e7e20e1461027d57600080fd5b806317599cc5146100f857806320b9588c146101355780632da9f9021461017c5780632decc41b146101a4575b600080fd5b34801561010457600080fd5b50610118610113366004610c96565b61039c565b6040516001600160a01b0390911681526020015b60405180910390f35b34801561014157600080fd5b5061016e610150366004610caf565b6001600160a01b031660009081526002602052604090206001015490565b60405190815260200161012c565b34801561018857600080fd5b506005546101189064010000000090046001600160a01b031681565b3480156101b057600080fd5b506101b96103c6565b005b6101b961043b565b3480156101cf57600080fd5b506102296101de366004610cdf565b6001602081905260009182526040909120805491810154600282015460039092015490919060ff811690610100810463ffffffff16906501000000000090046001600160a01b031686565b6040805196875260208701959095529385019290925260ff16606084015263ffffffff1660808301526001600160a01b031660a082015260c00161012c565b34801561027457600080fd5b506101b9610527565b34801561028957600080fd5b5061016e610298366004610caf565b60026020526000908152604090206001015481565b3480156102b957600080fd5b5060055463ffffffff165b60405163ffffffff909116815260200161012c565b3480156102e557600080fd5b506101b961058d565b3480156102fa57600080fd5b506000546001600160a01b0316610118565b6101b961031a366004610d05565b61075a565b34801561032b57600080fd5b506005546102c49063ffffffff1681565b34801561034857600080fd5b506101b9610357366004610cdf565b6109ff565b34801561036857600080fd5b5061016e610377366004610c96565b610b61565b34801561038857600080fd5b506101b9610397366004610caf565b610b82565b600381815481106103ac57600080fd5b6000918252602090912001546001600160a01b0316905081565b60005b60055463ffffffff90811690821610156104385763ffffffff811660009081526001602052604081206003015460ff1690036104265763ffffffff81166000908152600160208190526040909120600301805460ff191690911790555b8061043081610d47565b9150506103c9565b50565b33600090815260026020526040902060010154806104945760405162461bcd60e51b81526020600482015260116024820152704e6f207265776172647320666f756e642160781b60448201526064015b60405180910390fd5b60055460405163a9059cbb60e01b8152336004820152602481018390526401000000009091046001600160a01b03169063a9059cbb906044016020604051808303816000875af11580156104ec573d6000803e3d6000fd5b505050506040513d601f19601f820116820180604052508101906105109190610d6a565b505033600090815260026020526040812060010155565b6000546001600160a01b031633146105815760405162461bcd60e51b815260206004820181905260248201527f4f776e61626c653a2063616c6c6572206973206e6f7420746865206f776e6572604482015260640161048b565b61058b6000610c46565b565b60005b3360009081526002602052604090205463ffffffff8216101561043857336000908152600260205260408120805463ffffffff84169081106105d4576105d4610d8c565b60009182526020808320600883040154338452600291829052604090932001805460079092166004026101000a90920463ffffffff9081169350841690811061061f5761061f610d8c565b60009182526020808320908204015460ff601f9092166101000a900416151590036107475763ffffffff811660009081526001602081905260409091206003015460ff1690036106f45763ffffffff8082166000908152600160205260409020600381015490546106999261010090920490911690610da2565b33600090815260026020526040812060010180549091906106bb908490610dc4565b909155505033600090815260026020819052604090912001805463ffffffff84169081106106eb576106eb610d8c565b50600052610747565b63ffffffff811660009081526001602052604090206003015460ff166002036107475733600090815260026020819052604090912001805463ffffffff841690811061074257610742610d8c565b506000525b508061075281610d47565b915050610590565b6005546040516370a0823160e01b8152336004820152662386f26fc1000091600a91869164010000000090046001600160a01b0316906370a0823190602401602060405180830381865afa1580156107b6573d6000803e3d6000fd5b505050506040513d601f19601f820116820180604052508101906107da9190610ddc565b1161081f5760405162461bcd60e51b8152602060048201526015602482015274496e73756666696369656e742042616c616e63652160581b604482015260640161048b565b8185101561086f5760405162461bcd60e51b815260206004820152601d60248201527f596f75206e65656420746f207370656e64206d6f726520746f6b656e21000000604482015260640161048b565b808310156108b55760405162461bcd60e51b8152602060048201526013602482015272446561646c696e6520746f6f20636c6f73652160681b604482015260640161048b565b6005546040516323b872dd60e01b8152336004820152306024820152604481018790526401000000009091046001600160a01b0316906323b872dd906064016020604051808303816000875af1158015610913573d6000803e3d6000fd5b505050506040513d601f19601f820116820180604052508101906109379190610d6a565b506005805463ffffffff90811660009081526001602081905260408083208a905584548416835280832082018990558454841683528083206002018890558454841683528083206003908101805460ff191690558554851684528184208101805465010000000000600160c81b03191633650100000000000217905585548516845290832001805464ffffffff001916905583549093926109da91859116610df5565b92506101000a81548163ffffffff021916908363ffffffff1602179055505050505050565b60055463ffffffff90811690821610610a505760405162461bcd60e51b81526020600482015260136024820152725175657374696f6e206e6f7420666f756e642160681b604482015260640161048b565b63ffffffff811660009081526001602052604090206003015460ff1615610aac5760405162461bcd60e51b815260206004820152601060248201526f5175657374696f6e20636c6f7365642160801b604482015260640161048b565b33600090815260026020818152604080842080546001808201835582875284872060088304018054600790931660040261010090810a63ffffffff818102199095168b8616918202179092559390960180548083018255908852858820868204018054601f909216850a60ff021990911690559486529284905293206003018054929390928492610b409284920416610df5565b92506101000a81548163ffffffff021916908363ffffffff16021790555050565b60048181548110610b7157600080fd5b600091825260209091200154905081565b6000546001600160a01b03163314610bdc5760405162461bcd60e51b815260206004820181905260248201527f4f776e61626c653a2063616c6c6572206973206e6f7420746865206f776e6572604482015260640161048b565b6001600160a01b038116610c415760405162461bcd60e51b815260206004820152602660248201527f4f776e61626c653a206e6577206f776e657220697320746865207a65726f206160448201526564647265737360d01b606482015260840161048b565b610438815b600080546001600160a01b038381166001600160a01b0319831681178455604051919092169283917f8be0079c531659141344cd1fd0a4f28419497f9722a3daafe3b4186f6b6457e09190a35050565b600060208284031215610ca857600080fd5b5035919050565b600060208284031215610cc157600080fd5b81356001600160a01b0381168114610cd857600080fd5b9392505050565b600060208284031215610cf157600080fd5b813563ffffffff81168114610cd857600080fd5b600080600060608486031215610d1a57600080fd5b505081359360208301359350604090920135919050565b634e487b7160e01b600052601160045260246000fd5b600063ffffffff808316818103610d6057610d60610d31565b6001019392505050565b600060208284031215610d7c57600080fd5b81518015158114610cd857600080fd5b634e487b7160e01b600052603260045260246000fd5b600082610dbf57634e487b7160e01b600052601260045260246000fd5b500490565b60008219821115610dd757610dd7610d31565b500190565b600060208284031215610dee57600080fd5b5051919050565b600063ffffffff808316818516808303821115610e1457610e14610d31565b0194935050505056fea26469706673582212205f3d70e323bb991d3d897ae0735e3b42dfc054ab00ea2fbf309173d9886ce02964736f6c634300080f0033","bytecodeSha1":"0034230eb92abd24a5d4b0a581afefbf7fa6013c","type":"contract","abi":[{"inputs":[{"internalType":"address","name":"_ourTokenAddress","type":"address"}],"stateMutability":"nonpayable","type":"constructor","name":"constructor"},{"anonymous":false,"inputs":[{"indexed":true,"internalType":"address","name":"previousOwner","type":"address"},{"indexed":true,"internalType":"address","name":"newOwner","type":"address"}],"name":"OwnershipTransferred","type":"event"},{"inputs":[],"name":"OTToken","outputs":[{"internalType":"contract IERC20","name":"","type":"address"}],"stateMutability":"view","type":"function"},{"inputs":[{"internalType":"uint32","name":"_questionId","type":"uint32"}],"name":"answer","outputs":[],"stateMutability":"nonpayable","type":"function"},{"inputs":[{"internalType":"uint256","name":"","type":"uint256"}],"name":"answers","outputs":[{"internalType":"address","name":"","type":"address"}],"stateMutability":"view","type":"function"},{"inputs":[],"name":"claimRewards","outputs":[],"stateMutability":"payable","type":"function"},{"inputs":[],"name":"getNumberOfQuestions","outputs":[{"internalType":"uint32","name":"","type":"uint32"}],"stateMutability":"view","type":"function"},{"inputs":[{"internalType":"address","name":"_user","type":"address"}],"name":"myRewards","outputs":[{"internalType":"uint256","name":"","type":"uint256"}],"stateMutability":"view","type":"function"},{"inputs":[],"name":"owner","outputs":[{"internalType":"address","name":"","type":"address"}],"stateMutability":"view","type":"function"},{"inputs":[{"internalType":"uint32","name":"","type":"uint32"}],"name":"question","outputs":[{"internalType":"uint256","name":"totalRewards","type":"uint256"},{"internalType":"uint256","name":"maxAnswers","type":"uint256"},{"internalType":"uint256","name":"deadLine","type":"uint256"},{"internalType":"uint8","name":"status","type":"uint8"},{"internalType":"uint32","name":"numberOfAnswers","type":"uint32"},{"internalType":"address","name":"creator","type":"address"}],"stateMutability":"view","type":"function"},{"inputs":[],"name":"questionId","outputs":[{"internalType":"uint32","name":"","type":"uint32"}],"stateMutability":"view","type":"function"},{"inputs":[{"internalType":"uint256","name":"","type":"uint256"}],"name":"questionList","outputs":[{"internalType":"uint256","name":"","type":"uint256"}],"stateMutability":"view","type":"function"},{"inputs":[],"name":"renounceOwnership","outputs":[],"stateMutability":"nonpayable","type":"function"},{"inputs":[{"internalType":"uint256","name":"_totalRewards","type":"uint256"},{"internalType":"uint256","name":"_maxAnswers","type":"uint256"},{"internalType":"uint256","name":"_deadLine","type":"uint256"}],"name":"stake","outputs":[],"stateMutability":"payable","type":"function"},{"inputs":[{"internalType":"address","name":"newOwner","type":"address"}],"name":"transferOwnership","outputs":[],"stateMutability":"nonpayable","type":"function"},{"inputs":[],"name":"updateMyRewards","outputs":[],"stateMutability":"nonpayable","type":"function"},{"inputs":[],"name":"updateQuestionStatus","outputs":[],"stateMutability":"nonpayable","type":"function"},{"inputs":[{"internalType":"address","name":"","type":"address"}],"name":"user","outputs":[{"internalType":"uint256","name":"totalRewards","type":"uint256"}],"stateMutability":"view","type":"function"}],"compiler":{"version":"0.8.15+commit.e14f2714","evm_version":"istanbul","optimizer":{"enabled":true,"runs":200}},"contractName":"MainRouter","language":"Solidity","natspec":{"methods":{"owner()":{"details":"Returns the address of the current owner."},"renounceOwnership()":{"details":"Leaves the contract without owner. It will not be possible to call `onlyOwner` functions anymore. Can only be called by the current owner. NOTE: Renouncing ownership will leave the contract without an owner, thereby removing any functionality that is only available to the owner."},"transferOwnership(address)":{"details":"Transfers ownership of the contract to a new account (`newOwner`). Can only be called by the current owner."}},"kind":"dev","version":1},"opcodes":"PUSH1 0x80 PUSH1 0x40 MSTORE PUSH1 0x4 CALLDATASIZE LT PUSH2 0xF3 JUMPI PUSH1 0x0 CALLDATALOAD PUSH1 0xE0 SHR DUP1 PUSH4 0x84C228E6 GT PUSH2 0x8A JUMPI DUP1 PUSH4 0xB06A5C52 GT PUSH2 0x59 JUMPI DUP1 PUSH4 0xB06A5C52 EQ PUSH2 0x31F JUMPI DUP1 PUSH4 0xD61588EB EQ PUSH2 0x33C JUMPI DUP1 PUSH4 0xEAAEA05C EQ PUSH2 0x35C JUMPI DUP1 PUSH4 0xF2FDE38B EQ PUSH2 0x37C JUMPI PUSH1 0x0 DUP1 REVERT JUMPDEST DUP1 PUSH4 0x84C228E6 EQ PUSH2 0x2AD JUMPI DUP1 PUSH4 0x8D583D36 EQ PUSH2 0x2D9 JUMPI DUP1 PUSH4 0x8DA5CB5B EQ PUSH2 0x2EE JUMPI DUP1 PUSH4 0xA638F2E2 EQ PUSH2 0x30C JUMPI PUSH1 0x0 DUP1 REVERT JUMPDEST DUP1 PUSH4 0x372500AB GT PUSH2 0xC6 JUMPI DUP1 PUSH4 0x372500AB EQ PUSH2 0x1BB JUMPI DUP1 PUSH4 0x4612E609 EQ PUSH2 0x1C3 JUMPI DUP1 PUSH4 0x715018A6 EQ PUSH2 0x268 JUMPI DUP1 PUSH4 0x81E7E20E EQ PUSH2 0x27D JUMPI PUSH1 0x0 DUP1 REVERT JUMPDEST DUP1 PUSH4 0x17599CC5 EQ PUSH2 0xF8 JUMPI DUP1 PUSH4 0x20B9588C EQ PUSH2 0x135 JUMPI DUP1 PUSH4 0x2DA9F902 EQ PUSH2 0x17C JUMPI DUP1 PUSH4 0x2DECC41B EQ PUSH2 0x1A4 JUMPI JUMPDEST PUSH1 0x0 DUP1 REVERT JUMPDEST CALLVALUE DUP1 ISZERO PUSH2 0x104 JUMPI PUSH1 0x0 DUP1 REVERT JUMPDEST POP PUSH2 0x118 PUSH2 0x113 CALLDATASIZE PUSH1 0x4 PUSH2 0xC96 JUMP JUMPDEST PUSH2 0x39C JUMP JUMPDEST PUSH1 0x40 MLOAD PUSH1 0x1 PUSH1 0x1 PUSH1 0xA0 SHL SUB SWAP1 SWAP2 AND DUP2 MSTORE PUSH1 0x20 ADD JUMPDEST PUSH1 0x40 MLOAD DUP1 SWAP2 SUB SWAP1 RETURN JUMPDEST CALLVALUE DUP1 ISZERO PUSH2 0x141 JUMPI PUSH1 0x0 DUP1 REVERT JUMPDEST POP PUSH2 0x16E PUSH2 0x150 CALLDATASIZE PUSH1 0x4 PUSH2 0xCAF JUMP JUMPDEST PUSH1 0x1 PUSH1 0x1 PUSH1 0xA0 SHL SUB AND PUSH1 0x0 SWAP1 DUP2 MSTORE PUSH1 0x2 PUSH1 0x20 MSTORE PUSH1 0x40 SWAP1 KECCAK256 PUSH1 0x1 ADD SLOAD SWAP1 JUMP JUMPDEST PUSH1 0x40 MLOAD SWAP1 DUP2 MSTORE PUSH1 0x20 ADD PUSH2 0x12C JUMP JUMPDEST CALLVALUE DUP1 ISZERO PUSH2 0x188 JUMPI PUSH1 0x0 DUP1 REVERT JUMPDEST POP PUSH1 0x5 SLOAD PUSH2 0x118 SWAP1 PUSH5 0x100000000 SWAP1 DIV PUSH1 0x1 PUSH1 0x1 PUSH1 0xA0 SHL SUB AND DUP2 JUMP JUMPDEST CALLVALUE DUP1 ISZERO PUSH2 0x1B0 JUMPI PUSH1 0x0 DUP1 REVERT JUMPDEST POP PUSH2 0x1B9 PUSH2 0x3C6 JUMP JUMPDEST STOP JUMPDEST PUSH2 0x1B9 PUSH2 0x43B JUMP JUMPDEST CALLVALUE DUP1 ISZERO PUSH2 0x1CF JUMPI PUSH1 0x0 DUP1 REVERT JUMPDEST POP PUSH2 0x229 PUSH2 0x1DE CALLDATASIZE PUSH1 0x4 PUSH2 0xCDF JUMP JUMPDEST PUSH1 0x1 PUSH1 0x20 DUP2 SWAP1 MSTORE PUSH1 0x0 SWAP2 DUP3 MSTORE PUSH1 0x40 SWAP1 SWAP2 KECCAK256 DUP1 SLOAD SWAP2 DUP2 ADD SLOAD PUSH1 0x2 DUP3 ADD SLOAD PUSH1 0x3 SWAP1 SWAP3 ADD SLOAD SWAP1 SWAP2 SWAP1 PUSH1 0xFF DUP2 AND SWAP1 PUSH2 0x100 DUP2 DIV PUSH4 0xFFFFFFFF AND SWAP1 PUSH6 0x10000000000 SWAP1 DIV PUSH1 0x1 PUSH1 0x1 PUSH1 0xA0 SHL SUB AND DUP7 JUMP JUMPDEST PUSH1 0x40 DUP1 MLOAD SWAP7 DUP8 MSTORE PUSH1 0x20 DUP8 ADD SWAP6 SWAP1 SWAP6 MSTORE SWAP4 DUP6 ADD SWAP3 SWAP1 SWAP3 MSTORE PUSH1 0xFF AND PUSH1 0x60 DUP5 ADD MSTORE PUSH4 0xFFFFFFFF AND PUSH1 0x80 DUP4 ADD MSTORE PUSH1 0x1 PUSH1 0x1 PUSH1 0xA0 SHL SUB AND PUSH1 0xA0 DUP3 ADD MSTORE PUSH1 0xC0 ADD PUSH2 0x12C JUMP JUMPDEST CALLVALUE DUP1 ISZERO PUSH2 0x274 JUMPI PUSH1 0x0 DUP1 REVERT JUMPDEST POP PUSH2 0x1B9 PUSH2 0x527 JUMP JUMPDEST CALLVALUE DUP1 ISZERO PUSH2 0x289 JUMPI PUSH1 0x0 DUP1 REVERT JUMPDEST POP PUSH2 0x16E PUSH2 0x298 CALLDATASIZE PUSH1 0x4 PUSH2 0xCAF JUMP JUMPDEST PUSH1 0x2 PUSH1 0x20 MSTORE PUSH1 0x0 SWAP1 DUP2 MSTORE PUSH1 0x40 SWAP1 KECCAK256 PUSH1 0x1 ADD SLOAD DUP2 JUMP JUMPDEST CALLVALUE DUP1 ISZERO PUSH2 0x2B9 JUMPI PUSH1 0x0 DUP1 REVERT JUMPDEST POP PUSH1 0x5 SLOAD PUSH4 0xFFFFFFFF AND JUMPDEST PUSH1 0x40 MLOAD PUSH4 0xFFFFFFFF SWAP1 SWAP2 AND DUP2 MSTORE PUSH1 0x20 ADD PUSH2 0x12C JUMP JUMPDEST CALLVALUE DUP1 ISZERO PUSH2 0x2E5 JUMPI PUSH1 0x0 DUP1 REVERT JUMPDEST POP PUSH2 0x1B9 PUSH2 0x58D JUMP JUMPDEST CALLVALUE DUP1 ISZERO PUSH2 0x2FA JUMPI PUSH1 0x0 DUP1 REVERT JUMPDEST POP PUSH1 0x0 SLOAD PUSH1 0x1 PUSH1 0x1 PUSH1 0xA0 SHL SUB AND PUSH2 0x118 JUMP JUMPDEST PUSH2 0x1B9 PUSH2 0x31A CALLDATASIZE PUSH1 0x4 PUSH2 0xD05 JUMP JUMPDEST PUSH2 0x75A JUMP JUMPDEST CALLVALUE DUP1 ISZERO PUSH2 0x32B JUMPI PUSH1 0x0 DUP1 REVERT JUMPDEST POP PUSH1 0x5 SLOAD PUSH2 0x2C4 SWAP1 PUSH4 0xFFFFFFFF AND DUP2 JUMP JUMPDEST CALLVALUE DUP1 ISZERO PUSH2 0x348 JUMPI PUSH1 0x0 DUP1 REVERT JUMPDEST POP PUSH2 0x1B9 PUSH2 0x357 CALLDATASIZE PUSH1 0x4 PUSH2 0xCDF JUMP JUMPDEST PUSH2 0x9FF JUMP JUMPDEST CALLVALUE DUP1 ISZERO PUSH2 0x368 JUMPI PUSH1 0x0 DUP1 REVERT JUMPDEST POP PUSH2 0x16E PUSH2 0x377 CALLDATASIZE PUSH1 0x4 PUSH2 0xC96 JUMP JUMPDEST PUSH2 0xB61 JUMP JUMPDEST CALLVALUE DUP1 ISZERO PUSH2 0x388 JUMPI PUSH1 0x0 DUP1 REVERT JUMPDEST POP PUSH2 0x1B9 PUSH2 0x397 CALLDATASIZE PUSH1 0x4 PUSH2 0xCAF JUMP JUMPDEST PUSH2 0xB82 JUMP JUMPDEST PUSH1 0x3 DUP2 DUP2 SLOAD DUP2 LT PUSH2 0x3AC JUMPI PUSH1 0x0 DUP1 REVERT JUMPDEST PUSH1 0x0 SWAP2 DUP3 MSTORE PUSH1 0x20 SWAP1 SWAP2 KECCAK256 ADD SLOAD PUSH1 0x1 PUSH1 0x1 PUSH1 0xA0 SHL SUB AND SWAP1 POP DUP2 JUMP JUMPDEST PUSH1 0x0 JUMPDEST PUSH1 0x5 SLOAD PUSH4 0xFFFFFFFF SWAP1 DUP2 AND SWAP1 DUP3 AND LT ISZERO PUSH2 0x438 JUMPI PUSH4 0xFFFFFFFF DUP2 AND PUSH1 0x0 SWAP1 DUP2 MSTORE PUSH1 0x1 PUSH1 0x20 MSTORE PUSH1 0x40 DUP2 KECCAK256 PUSH1 0x3 ADD SLOAD PUSH1 0xFF AND SWAP1 SUB PUSH2 0x426 JUMPI PUSH4 0xFFFFFFFF DUP2 AND PUSH1 0x0 SWAP1 DUP2 MSTORE PUSH1 0x1 PUSH1 0x20 DUP2 SWAP1 MSTORE PUSH1 0x40 SWAP1 SWAP2 KECCAK256 PUSH1 0x3 ADD DUP1 SLOAD PUSH1 0xFF NOT AND SWAP1 SWAP2 OR SWAP1 SSTORE JUMPDEST DUP1 PUSH2 0x430 DUP2 PUSH2 0xD47 JUMP JUMPDEST SWAP2 POP POP PUSH2 0x3C9 JUMP JUMPDEST POP JUMP JUMPDEST CALLER PUSH1 0x0 SWAP1 DUP2 MSTORE PUSH1 0x2 PUSH1 0x20 MSTORE PUSH1 0x40 SWAP1 KECCAK256 PUSH1 0x1 ADD SLOAD DUP1 PUSH2 0x494 JUMPI PUSH1 0x40 MLOAD PUSH3 0x461BCD PUSH1 0xE5 SHL DUP2 MSTORE PUSH1 0x20 PUSH1 0x4 DUP3 ADD MSTORE PUSH1 0x11 PUSH1 0x24 DUP3 ADD MSTORE PUSH17 0x4E6F207265776172647320666F756E6421 PUSH1 0x78 SHL PUSH1 0x44 DUP3 ADD MSTORE PUSH1 0x64 ADD JUMPDEST PUSH1 0x40 MLOAD DUP1 SWAP2 SUB SWAP1 REVERT JUMPDEST PUSH1 0x5 SLOAD PUSH1 0x40 MLOAD PUSH4 0xA9059CBB PUSH1 0xE0 SHL DUP2 MSTORE CALLER PUSH1 0x4 DUP3 ADD MSTORE PUSH1 0x24 DUP2 ADD DUP4 SWAP1 MSTORE PUSH5 0x100000000 SWAP1 SWAP2 DIV PUSH1 0x1 PUSH1 0x1 PUSH1 0xA0 SHL SUB AND SWAP1 PUSH4 0xA9059CBB SWAP1 PUSH1 0x44 ADD PUSH1 0x20 PUSH1 0x40 MLOAD DUP1 DUP4 SUB DUP2 PUSH1 0x0 DUP8 GAS CALL ISZERO DUP1 ISZERO PUSH2 0x4EC JUMPI RETURNDATASIZE PUSH1 0x0 DUP1 RETURNDATACOPY RETURNDATASIZE PUSH1 0x0 REVERT JUMPDEST POP POP POP POP PUSH1 0x40 MLOAD RETURNDATASIZE PUSH1 0x1F NOT PUSH1 0x1F DUP3 ADD AND DUP3 ADD DUP1 PUSH1 0x40 MSTORE POP DUP2 ADD SWAP1 PUSH2 0x510 SWAP2 SWAP1 PUSH2 0xD6A JUMP JUMPDEST POP POP CALLER PUSH1 0x0 SWAP1 DUP2 MSTORE PUSH1 0x2 PUSH1 0x20 MSTORE PUSH1 0x40 DUP2 KECCAK256 PUSH1 0x1 ADD SSTORE JUMP JUMPDEST PUSH1 0x0 SLOAD PUSH1 0x1 PUSH1 0x1 PUSH1 0xA0 SHL SUB AND CALLER EQ PUSH2 0x581 JUMPI PUSH1 0x40 MLOAD PUSH3 0x461BCD PUSH1 0xE5 SHL DUP2 MSTORE PUSH1 0x20 PUSH1 0x4 DUP3 ADD DUP2 SWAP1 MSTORE PUSH1 0x24 DUP3 ADD MSTORE PUSH32 0x4F776E61626C653A2063616C6C6572206973206E6F7420746865206F776E6572 PUSH1 0x44 DUP3 ADD MSTORE PUSH1 0x64 ADD PUSH2 0x48B JUMP JUMPDEST PUSH2 0x58B PUSH1 0x0 PUSH2 0xC46 JUMP JUMPDEST JUMP JUMPDEST PUSH1 0x0 JUMPDEST CALLER PUSH1 0x0 SWAP1 DUP2 MSTORE PUSH1 0x2 PUSH1 0x20 MSTORE PUSH1 0x40 SWAP1 KECCAK256 SLOAD PUSH4 0xFFFFFFFF DUP3 AND LT ISZERO PUSH2 0x438 JUMPI CALLER PUSH1 0x0 SWAP1 DUP2 MSTORE PUSH1 0x2 PUSH1 0x20 MSTORE PUSH1 0x40 DUP2 KECCAK256 DUP1 SLOAD PUSH4 0xFFFFFFFF DUP5 AND SWAP1 DUP2 LT PUSH2 0x5D4 JUMPI PUSH2 0x5D4 PUSH2 0xD8C JUMP JUMPDEST PUSH1 0x0 SWAP2 DUP3 MSTORE PUSH1 0x20 DUP1 DUP4 KECCAK256 PUSH1 0x8 DUP4 DIV ADD SLOAD CALLER DUP5 MSTORE PUSH1 0x2 SWAP2 DUP3 SWAP1 MSTORE PUSH1 0x40 SWAP1 SWAP4 KECCAK256 ADD DUP1 SLOAD PUSH1 0x7 SWAP1 SWAP3 AND PUSH1 0x4 MUL PUSH2 0x100 EXP SWAP1 SWAP3 DIV PUSH4 0xFFFFFFFF SWAP1 DUP2 AND SWAP4 POP DUP5 AND SWAP1 DUP2 LT PUSH2 0x61F JUMPI PUSH2 0x61F PUSH2 0xD8C JUMP JUMPDEST PUSH1 0x0 SWAP2 DUP3 MSTORE PUSH1 0x20 DUP1 DUP4 KECCAK256 SWAP1 DUP3 DIV ADD SLOAD PUSH1 0xFF PUSH1 0x1F SWAP1 SWAP3 AND PUSH2 0x100 EXP SWAP1 DIV AND ISZERO ISZERO SWAP1 SUB PUSH2 0x747 JUMPI PUSH4 0xFFFFFFFF DUP2 AND PUSH1 0x0 SWAP1 DUP2 MSTORE PUSH1 0x1 PUSH1 0x20 DUP2 SWAP1 MSTORE PUSH1 0x40 SWAP1 SWAP2 KECCAK256 PUSH1 0x3 ADD SLOAD PUSH1 0xFF AND SWAP1 SUB PUSH2 0x6F4 JUMPI PUSH4 0xFFFFFFFF DUP1 DUP3 AND PUSH1 0x0 SWAP1 DUP2 MSTORE PUSH1 0x1 PUSH1 0x20 MSTORE PUSH1 0x40 SWAP1 KECCAK256 PUSH1 0x3 DUP2 ADD SLOAD SWAP1 SLOAD PUSH2 0x699 SWAP3 PUSH2 0x100 SWAP1 SWAP3 DIV SWAP1 SWAP2 AND SWAP1 PUSH2 0xDA2 JUMP JUMPDEST CALLER PUSH1 0x0 SWAP1 DUP2 MSTORE PUSH1 0x2 PUSH1 0x20 MSTORE PUSH1 0x40 DUP2 KECCAK256 PUSH1 0x1 ADD DUP1 SLOAD SWAP1 SWAP2 SWAP1 PUSH2 0x6BB SWAP1 DUP5 SWAP1 PUSH2 0xDC4 JUMP JUMPDEST SWAP1 SWAP2 SSTORE POP POP CALLER PUSH1 0x0 SWAP1 DUP2 MSTORE PUSH1 0x2 PUSH1 0x20 DUP2 SWAP1 MSTORE PUSH1 0x40 SWAP1 SWAP2 KECCAK256 ADD DUP1 SLOAD PUSH4 0xFFFFFFFF DUP5 AND SWAP1 DUP2 LT PUSH2 0x6EB JUMPI PUSH2 0x6EB PUSH2 0xD8C JUMP JUMPDEST POP PUSH1 0x0 MSTORE PUSH2 0x747 JUMP JUMPDEST PUSH4 0xFFFFFFFF DUP2 AND PUSH1 0x0 SWAP1 DUP2 MSTORE PUSH1 0x1 PUSH1 0x20 MSTORE PUSH1 0x40 SWAP1 KECCAK256 PUSH1 0x3 ADD SLOAD PUSH1 0xFF AND PUSH1 0x2 SUB PUSH2 0x747 JUMPI CALLER PUSH1 0x0 SWAP1 DUP2 MSTORE PUSH1 0x2 PUSH1 0x20 DUP2 SWAP1 MSTORE PUSH1 0x40 SWAP1 SWAP2 KECCAK256 ADD DUP1 SLOAD PUSH4 0xFFFFFFFF DUP5 AND SWAP1 DUP2 LT PUSH2 0x742 JUMPI PUSH2 0x742 PUSH2 0xD8C JUMP JUMPDEST POP PUSH1 0x0 MSTORE JUMPDEST POP DUP1 PUSH2 0x752 DUP2 PUSH2 0xD47 JUMP JUMPDEST SWAP2 POP POP PUSH2 0x590 JUMP JUMPDEST PUSH1 0x5 SLOAD PUSH1 0x40 MLOAD PUSH4 0x70A08231 PUSH1 0xE0 SHL DUP2 MSTORE CALLER PUSH1 0x4 DUP3 ADD MSTORE PUSH7 0x2386F26FC10000 SWAP2 PUSH1 0xA SWAP2 DUP7 SWAP2 PUSH5 0x100000000 SWAP1 DIV PUSH1 0x1 PUSH1 0x1 PUSH1 0xA0 SHL SUB AND SWAP1 PUSH4 0x70A08231 SWAP1 PUSH1 0x24 ADD PUSH1 0x20 PUSH1 0x40 MLOAD DUP1 DUP4 SUB DUP2 DUP7 GAS STATICCALL ISZERO DUP1 ISZERO PUSH2 0x7B6 JUMPI RETURNDATASIZE PUSH1 0x0 DUP1 RETURNDATACOPY RETURNDATASIZE PUSH1 0x0 REVERT JUMPDEST POP POP POP POP PUSH1 0x40 MLOAD RETURNDATASIZE PUSH1 0x1F NOT PUSH1 0x1F DUP3 ADD AND DUP3 ADD DUP1 PUSH1 0x40 MSTORE POP DUP2 ADD SWAP1 PUSH2 0x7DA SWAP2 SWAP1 PUSH2 0xDDC JUMP JUMPDEST GT PUSH2 0x81F JUMPI PUSH1 0x40 MLOAD PUSH3 0x461BCD PUSH1 0xE5 SHL DUP2 MSTORE PUSH1 0x20 PUSH1 0x4 DUP3 ADD MSTORE PUSH1 0x15 PUSH1 0x24 DUP3 ADD MSTORE PUSH21 0x496E73756666696369656E742042616C616E636521 PUSH1 0x58 SHL PUSH1 0x44 DUP3 ADD MSTORE PUSH1 0x64 ADD PUSH2 0x48B JUMP JUMPDEST DUP2 DUP6 LT ISZERO PUSH2 0x86F JUMPI PUSH1 0x40 MLOAD PUSH3 0x461BCD PUSH1 0xE5 SHL DUP2 MSTORE PUSH1 0x20 PUSH1 0x4 DUP3 ADD MSTORE PUSH1 0x1D PUSH1 0x24 DUP3 ADD MSTORE PUSH32 0x596F75206E65656420746F207370656E64206D6F726520746F6B656E21000000 PUSH1 0x44 DUP3 ADD MSTORE PUSH1 0x64 ADD PUSH2 0x48B JUMP JUMPDEST DUP1 DUP4 LT ISZERO PUSH2 0x8B5 JUMPI PUSH1 0x40 MLOAD PUSH3 0x461BCD PUSH1 0xE5 SHL DUP2 MSTORE PUSH1 0x20 PUSH1 0x4 DUP3 ADD MSTORE PUSH1 0x13 PUSH1 0x24 DUP3 ADD MSTORE PUSH19 0x446561646C696E6520746F6F20636C6F736521 PUSH1 0x68 SHL PUSH1 0x44 DUP3 ADD MSTORE PUSH1 0x64 ADD PUSH2 0x48B JUMP JUMPDEST PUSH1 0x5 SLOAD PUSH1 0x40 MLOAD PUSH4 0x23B872DD PUSH1 0xE0 SHL DUP2 MSTORE CALLER PUSH1 0x4 DUP3 ADD MSTORE ADDRESS PUSH1 0x24 DUP3 ADD MSTORE PUSH1 0x44 DUP2 ADD DUP8 SWAP1 MSTORE PUSH5 0x100000000 SWAP1 SWAP2 DIV PUSH1 0x1 PUSH1 0x1 PUSH1 0xA0 SHL SUB AND SWAP1 PUSH4 0x23B872DD SWAP1 PUSH1 0x64 ADD PUSH1 0x20 PUSH1 0x40 MLOAD DUP1 DUP4 SUB DUP2 PUSH1 0x0 DUP8 GAS CALL ISZERO DUP1 ISZERO PUSH2 0x913 JUMPI RETURNDATASIZE PUSH1 0x0 DUP1 RETURNDATACOPY RETURNDATASIZE PUSH1 0x0 REVERT JUMPDEST POP POP POP POP PUSH1 0x40 MLOAD RETURNDATASIZE PUSH1 0x1F NOT PUSH1 0x1F DUP3 ADD AND DUP3 ADD DUP1 PUSH1 0x40 MSTORE POP DUP2 ADD SWAP1 PUSH2 0x937 SWAP2 SWAP1 PUSH2 0xD6A JUMP JUMPDEST POP PUSH1 0x5 DUP1 SLOAD PUSH4 0xFFFFFFFF SWAP1 DUP2 AND PUSH1 0x0 SWAP1 DUP2 MSTORE PUSH1 0x1 PUSH1 0x20 DUP2 SWAP1 MSTORE PUSH1 0x40 DUP1 DUP4 KECCAK256 DUP11 SWAP1 SSTORE DUP5 SLOAD DUP5 AND DUP4 MSTORE DUP1 DUP4 KECCAK256 DUP3 ADD DUP10 SWAP1 SSTORE DUP5 SLOAD DUP5 AND DUP4 MSTORE DUP1 DUP4 KECCAK256 PUSH1 0x2 ADD DUP9 SWAP1 SSTORE DUP5 SLOAD DUP5 AND DUP4 MSTORE DUP1 DUP4 KECCAK256 PUSH1 0x3 SWAP1 DUP2 ADD DUP1 SLOAD PUSH1 0xFF NOT AND SWAP1 SSTORE DUP6 SLOAD DUP6 AND DUP5 MSTORE DUP2 DUP5 KECCAK256 DUP2 ADD DUP1 SLOAD PUSH6 0x10000000000 PUSH1 0x1 PUSH1 0xC8 SHL SUB NOT AND CALLER PUSH6 0x10000000000 MUL OR SWAP1 SSTORE DUP6 SLOAD DUP6 AND DUP5 MSTORE SWAP1 DUP4 KECCAK256 ADD DUP1 SLOAD PUSH5 0xFFFFFFFF00 NOT AND SWAP1 SSTORE DUP4 SLOAD SWAP1 SWAP4 SWAP3 PUSH2 0x9DA SWAP2 DUP6 SWAP2 AND PUSH2 0xDF5 JUMP JUMPDEST SWAP3 POP PUSH2 0x100 EXP DUP2 SLOAD DUP2 PUSH4 0xFFFFFFFF MUL NOT AND SWAP1 DUP4 PUSH4 0xFFFFFFFF AND MUL OR SWAP1 SSTORE POP POP POP POP POP POP JUMP JUMPDEST PUSH1 0x5 SLOAD PUSH4 0xFFFFFFFF SWAP1 DUP2 AND SWAP1 DUP3 AND LT PUSH2 0xA50 JUMPI PUSH1 0x40 MLOAD PUSH3 0x461BCD PUSH1 0xE5 SHL DUP2 MSTORE PUSH1 0x20 PUSH1 0x4 DUP3 ADD MSTORE PUSH1 0x13 PUSH1 0x24 DUP3 ADD MSTORE PUSH19 0x5175657374696F6E206E6F7420666F756E6421 PUSH1 0x68 SHL PUSH1 0x44 DUP3 ADD MSTORE PUSH1 0x64 ADD PUSH2 0x48B JUMP JUMPDEST PUSH4 0xFFFFFFFF DUP2 AND PUSH1 0x0 SWAP1 DUP2 MSTORE PUSH1 0x1 PUSH1 0x20 MSTORE PUSH1 0x40 SWAP1 KECCAK256 PUSH1 0x3 ADD SLOAD PUSH1 0xFF AND ISZERO PUSH2 0xAAC JUMPI PUSH1 0x40 MLOAD PUSH3 0x461BCD PUSH1 0xE5 SHL DUP2 MSTORE PUSH1 0x20 PUSH1 0x4 DUP3 ADD MSTORE PUSH1 0x10 PUSH1 0x24 DUP3 ADD MSTORE PUSH16 0x5175657374696F6E20636C6F73656421 PUSH1 0x80 SHL PUSH1 0x44 DUP3 ADD MSTORE PUSH1 0x64 ADD PUSH2 0x48B JUMP JUMPDEST CALLER PUSH1 0x0 SWAP1 DUP2 MSTORE PUSH1 0x2 PUSH1 0x20 DUP2 DUP2 MSTORE PUSH1 0x40 DUP1 DUP5 KECCAK256 DUP1 SLOAD PUSH1 0x1 DUP1 DUP3 ADD DUP4 SSTORE DUP3 DUP8 MSTORE DUP5 DUP8 KECCAK256 PUSH1 0x8 DUP4 DIV ADD DUP1 SLOAD PUSH1 0x7 SWAP1 SWAP4 AND PUSH1 0x4 MUL PUSH2 0x100 SWAP1 DUP2 EXP PUSH4 0xFFFFFFFF DUP2 DUP2 MUL NOT SWAP1 SWAP6 AND DUP12 DUP7 AND SWAP2 DUP3 MUL OR SWAP1 SWAP3 SSTORE SWAP4 SWAP1 SWAP7 ADD DUP1 SLOAD DUP1 DUP4 ADD DUP3 SSTORE SWAP1 DUP9 MSTORE DUP6 DUP9 KECCAK256 DUP7 DUP3 DIV ADD DUP1 SLOAD PUSH1 0x1F SWAP1 SWAP3 AND DUP6 EXP PUSH1 0xFF MUL NOT SWAP1 SWAP2 AND SWAP1 SSTORE SWAP5 DUP7 MSTORE SWAP3 DUP5 SWAP1 MSTORE SWAP4 KECCAK256 PUSH1 0x3 ADD DUP1 SLOAD SWAP3 SWAP4 SWAP1 SWAP3 DUP5 SWAP3 PUSH2 0xB40 SWAP3 DUP5 SWAP3 DIV AND PUSH2 0xDF5 JUMP JUMPDEST SWAP3 POP PUSH2 0x100 EXP DUP2 SLOAD DUP2 PUSH4 0xFFFFFFFF MUL NOT AND SWAP1 DUP4 PUSH4 0xFFFFFFFF AND MUL OR SWAP1 SSTORE POP POP JUMP JUMPDEST PUSH1 0x4 DUP2 DUP2 SLOAD DUP2 LT PUSH2 0xB71 JUMPI PUSH1 0x0 DUP1 REVERT JUMPDEST PUSH1 0x0 SWAP2 DUP3 MSTORE PUSH1 0x20 SWAP1 SWAP2 KECCAK256 ADD SLOAD SWAP1 POP DUP2 JUMP JUMPDEST PUSH1 0x0 SLOAD PUSH1 0x1 PUSH1 0x1 PUSH1 0xA0 SHL SUB AND CALLER EQ PUSH2 0xBDC JUMPI PUSH1 0x40 MLOAD PUSH3 0x461BCD PUSH1 0xE5 SHL DUP2 MSTORE PUSH1 0x20 PUSH1 0x4 DUP3 ADD DUP2 SWAP1 MSTORE PUSH1 0x24 DUP3 ADD MSTORE PUSH32 0x4F776E61626C653A2063616C6C6572206973206E6F7420746865206F776E6572 PUSH1 0x44 DUP3 ADD MSTORE PUSH1 0x64 ADD PUSH2 0x48B JUMP JUMPDEST PUSH1 0x1 PUSH1 0x1 PUSH1 0xA0 SHL SUB DUP2 AND PUSH2 0xC41 JUMPI PUSH1 0x40 MLOAD PUSH3 0x461BCD PUSH1 0xE5 SHL DUP2 MSTORE PUSH1 0x20 PUSH1 0x4 DUP3 ADD MSTORE PUSH1 0x26 PUSH1 0x24 DUP3 ADD MSTORE PUSH32 0x4F776E61626C653A206E6577206F776E657220697320746865207A65726F2061 PUSH1 0x44 DUP3 ADD MSTORE PUSH6 0x646472657373 PUSH1 0xD0 SHL PUSH1 0x64 DUP3 ADD MSTORE PUSH1 0x84 ADD PUSH2 0x48B JUMP JUMPDEST PUSH2 0x438 DUP2 JUMPDEST PUSH1 0x0 DUP1 SLOAD PUSH1 0x1 PUSH1 0x1 PUSH1 0xA0 SHL SUB DUP4 DUP2 AND PUSH1 0x1 PUSH1 0x1 PUSH1 0xA0 SHL SUB NOT DUP4 AND DUP2 OR DUP5 SSTORE PUSH1 0x40 MLOAD SWAP2 SWAP1 SWAP3 AND SWAP3 DUP4 SWAP2 PUSH32 0x8BE0079C531659141344CD1FD0A4F28419497F9722A3DAAFE3B4186F6B6457E0 SWAP2 SWAP1 LOG3 POP POP JUMP JUMPDEST PUSH1 0x0 PUSH1 0x20 DUP3 DUP5 SUB SLT ISZERO PUSH2 0xCA8 JUMPI PUSH1 0x0 DUP1 REVERT JUMPDEST POP CALLDATALOAD SWAP2 SWAP1 POP JUMP JUMPDEST PUSH1 0x0 PUSH1 0x20 DUP3 DUP5 SUB SLT ISZERO PUSH2 0xCC1 JUMPI PUSH1 0x0 DUP1 REVERT JUMPDEST DUP2 CALLDATALOAD PUSH1 0x1 PUSH1 0x1 PUSH1 0xA0 SHL SUB DUP2 AND DUP2 EQ PUSH2 0xCD8 JUMPI PUSH1 0x0 DUP1 REVERT JUMPDEST SWAP4 SWAP3 POP POP POP JUMP JUMPDEST PUSH1 0x0 PUSH1 0x20 DUP3 DUP5 SUB SLT ISZERO PUSH2 0xCF1 JUMPI PUSH1 0x0 DUP1 REVERT JUMPDEST DUP2 CALLDATALOAD PUSH4 0xFFFFFFFF DUP2 AND DUP2 EQ PUSH2 0xCD8 JUMPI PUSH1 0x0 DUP1 REVERT JUMPDEST PUSH1 0x0 DUP1 PUSH1 0x0 PUSH1 0x60 DUP5 DUP7 SUB SLT ISZERO PUSH2 0xD1A JUMPI PUSH1 0x0 DUP1 REVERT JUMPDEST POP POP DUP2 CALLDATALOAD SWAP4 PUSH1 0x20 DUP4 ADD CALLDATALOAD SWAP4 POP PUSH1 0x40 SWAP1 SWAP3 ADD CALLDATALOAD SWAP2 SWAP1 POP JUMP JUMPDEST PUSH4 0x4E487B71 PUSH1 0xE0 SHL PUSH1 0x0 MSTORE PUSH1 0x11 PUSH1 0x4 MSTORE PUSH1 0x24 PUSH1 0x0 REVERT JUMPDEST PUSH1 0x0 PUSH4 0xFFFFFFFF DUP1 DUP4 AND DUP2 DUP2 SUB PUSH2 0xD60 JUMPI PUSH2 0xD60 PUSH2 0xD31 JUMP JUMPDEST PUSH1 0x1 ADD SWAP4 SWAP3 POP POP POP JUMP JUMPDEST PUSH1 0x0 PUSH1 0x20 DUP3 DUP5 SUB SLT ISZERO PUSH2 0xD7C JUMPI PUSH1 0x0 DUP1 REVERT JUMPDEST DUP2 MLOAD DUP1 ISZERO ISZERO DUP2 EQ PUSH2 0xCD8 JUMPI PUSH1 0x0 DUP1 REVERT JUMPDEST PUSH4 0x4E487B71 PUSH1 0xE0 SHL PUSH1 0x0 MSTORE PUSH1 0x32 PUSH1 0x4 MSTORE PUSH1 0x24 PUSH1 0x0 REVERT JUMPDEST PUSH1 0x0 DUP3 PUSH2 0xDBF JUMPI PUSH4 0x4E487B71 PUSH1 0xE0 SHL PUSH1 0x0 MSTORE PUSH1 0x12 PUSH1 0x4 MSTORE PUSH1 0x24 PUSH1 0x0 REVERT JUMPDEST POP DIV SWAP1 JUMP JUMPDEST PUSH1 0x0 DUP3 NOT DUP3 GT ISZERO PUSH2 0xDD7 JUMPI PUSH2 0xDD7 PUSH2 0xD31 JUMP JUMPDEST POP ADD SWAP1 JUMP JUMPDEST PUSH1 0x0 PUSH1 0x20 DUP3 DUP5 SUB SLT ISZERO PUSH2 0xDEE JUMPI PUSH1 0x0 DUP1 REVERT JUMPDEST POP MLOAD SWAP2 SWAP1 POP JUMP JUMPDEST PUSH1 0x0 PUSH4 0xFFFFFFFF DUP1 DUP4 AND DUP2 DUP6 AND DUP1 DUP4 SUB DUP3 GT ISZERO PUSH2 0xE14 JUMPI PUSH2 0xE14 PUSH2 0xD31 JUMP JUMPDEST ADD SWAP5 SWAP4 POP POP POP POP JUMP INVALID LOG2 PUSH5 0x6970667358 0x22 SLT KECCAK256 0x5F RETURNDATASIZE PUSH17 0xE323BB991D3D897AE0735E3B42DFC054AB STOP 0xEA 0x2F 0xBF ADDRESS SWAP2 PUSH20 0xD9886CE02964736F6C634300080F003300000000 ","sha1":"106ace7b8a127f6746d54dc0f8376e27b866dfba","source":"// SPDX-License-Identifier: MIT\n\npragma solidity >=0.6.0 <0.9.0;\nimport \"@openzeppelin/contracts/access/Ownable.sol\";\nimport \"@openzeppelin/contracts/token/ERC20/IERC20.sol\";\n\ncontract MainRouter is Ownable {\n    //    using SafeMathChainlink for uint256;\n\n    struct QuestionsStruct {\n        uint256 totalRewards;\n        uint256 maxAnswers;\n        uint256 deadLine;\n        uint8 status;\n        uint32 numberOfAnswers;\n        address creator;\n    }\n\n    struct UserStruct {\n        uint32[] questionsAnswered;\n        uint256 totalRewards;\n        bool[] rewardsCounted;\n    }\n\n    mapping(uint32 => QuestionsStruct) public question;\n    mapping(address => UserStruct) public user;\n    address[] public answers;\n    uint256[] public questionList;\n    uint32 public questionId;\n    IERC20 public OTToken;\n\n    constructor(address _ourTokenAddress) public {\n        OTToken = IERC20(_ourTokenAddress);\n        uint32 questionCount = 0;\n    }\n\n    function stake(\n        uint256 _totalRewards,\n        uint256 _maxAnswers,\n        uint256 _deadLine\n    ) public payable {\n        uint256 minStake = 10000000000000000;\n        uint256 minDeadLine = 10;\n\n        require(\n            OTToken.balanceOf(msg.sender) > _totalRewards,\n            \"Insufficient Balance!\"\n        );\n        require(_totalRewards >= minStake, \"You need to spend more token!\");\n        require(_deadLine >= minDeadLine, \"Deadline too close!\");\n        OTToken.transferFrom(msg.sender, address(this), _totalRewards);\n        question[questionId].totalRewards = _totalRewards;\n        question[questionId].maxAnswers = _maxAnswers;\n        question[questionId].deadLine = _deadLine;\n        question[questionId].status = 0;\n        question[questionId].creator = msg.sender;\n        question[questionId].numberOfAnswers = 0;\n        questionId += 1;\n    }\n\n    function getNumberOfQuestions() public view returns (uint32) {\n        return questionId;\n    }\n\n    function answer(uint32 _questionId) public {\n        require(_questionId < questionId, \"Question not found!\");\n        require(question[_questionId].status == 0, \"Question closed!\");\n        user[msg.sender].questionsAnswered.push(_questionId);\n        user[msg.sender].rewardsCounted.push(false);\n        question[_questionId].numberOfAnswers += 1;\n    }\n\n    function updateQuestionStatus() public {\n        for (uint32 id = 0; id < questionId; id++) {\n            if (question[id].status == 0) {\n                question[id].status = 1;\n            }\n        }\n    }\n\n    function updateMyRewards() public {\n        for (\n            uint32 id = 0;\n            id < user[msg.sender].questionsAnswered.length;\n            id++\n        ) {\n            uint32 qId = user[msg.sender].questionsAnswered[id];\n            if (user[msg.sender].rewardsCounted[id] == false) {\n                if (question[qId].status == 1) {\n                    user[msg.sender].totalRewards +=\n                        question[qId].totalRewards /\n                        question[qId].numberOfAnswers;\n                    user[msg.sender].rewardsCounted[id] == true;\n                } else if (question[qId].status == 2) {\n                    user[msg.sender].rewardsCounted[id] == true;\n                }\n            }\n        }\n    }\n\n    function myRewards(address _user) public view returns (uint256) {\n        return user[_user].totalRewards;\n    }\n\n    function claimRewards() public payable {\n        uint256 amount = user[msg.sender].totalRewards;\n        require(amount > 0, \"No rewards found!\");\n        OTToken.transfer(msg.sender, amount);\n        user[msg.sender].totalRewards = 0;\n    }\n    //answers arrary needs to be modified after claim\n}\n","sourcePath":"contracts/MainRouter.sol","deployment":{"address":"0xc942AFF0BB26F614ffFa966c4651ad950B02aA43","chainid":"4","blockHeight":11210080}}