{"abi":[{"inputs":[{"internalType":"address","name":"_ourTokenAddress","type":"address"}],"stateMutability":"nonpayable","type":"constructor","name":"constructor"},{"anonymous":false,"inputs":[{"indexed":true,"internalType":"address","name":"previousOwner","type":"address"},{"indexed":true,"internalType":"address","name":"newOwner","type":"address"}],"name":"OwnershipTransferred","type":"event"},{"inputs":[],"name":"OTToken","outputs":[{"internalType":"contract IERC20","name":"","type":"address"}],"stateMutability":"view","type":"function"},{"inputs":[{"internalType":"uint32","name":"_questionId","type":"uint32"}],"name":"answer","outputs":[],"stateMutability":"nonpayable","type":"function"},{"inputs":[{"internalType":"uint256","name":"","type":"uint256"}],"name":"answers","outputs":[{"internalType":"address","name":"","type":"address"}],"stateMutability":"view","type":"function"},{"inputs":[],"name":"claimRewards","outputs":[],"stateMutability":"payable","type":"function"},{"inputs":[{"internalType":"address","name":"_account","type":"address"}],"name":"getMyAnsweredQuestions","outputs":[{"internalType":"uint32[]","name":"","type":"uint32[]"}],"stateMutability":"view","type":"function"},{"inputs":[{"internalType":"address","name":"_account","type":"address"}],"name":"getMyCreatedQuestions","outputs":[{"internalType":"uint32[]","name":"","type":"uint32[]"}],"stateMutability":"view","type":"function"},{"inputs":[],"name":"getNumberOfQuestions","outputs":[{"internalType":"uint32","name":"","type":"uint32"}],"stateMutability":"view","type":"function"},{"inputs":[],"name":"getQuestionsStatus","outputs":[{"internalType":"uint8[]","name":"","type":"uint8[]"},{"internalType":"uint256[]","name":"","type":"uint256[]"},{"internalType":"uint256[]","name":"","type":"uint256[]"},{"internalType":"uint256[]","name":"","type":"uint256[]"}],"stateMutability":"view","type":"function"},{"inputs":[{"internalType":"address","name":"_user","type":"address"}],"name":"myRewards","outputs":[{"internalType":"uint256","name":"","type":"uint256"}],"stateMutability":"view","type":"function"},{"inputs":[],"name":"owner","outputs":[{"internalType":"address","name":"","type":"address"}],"stateMutability":"view","type":"function"},{"inputs":[{"internalType":"uint32","name":"","type":"uint32"}],"name":"question","outputs":[{"internalType":"uint256","name":"totalRewards","type":"uint256"},{"internalType":"uint256","name":"maxAnswers","type":"uint256"},{"internalType":"uint256","name":"numberOfAnswers","type":"uint256"},{"internalType":"uint256","name":"deadLine","type":"uint256"},{"internalType":"uint8","name":"status","type":"uint8"},{"internalType":"uint256","name":"timeCreated","type":"uint256"},{"internalType":"address","name":"creator","type":"address"}],"stateMutability":"view","type":"function"},{"inputs":[],"name":"questionId","outputs":[{"internalType":"uint32","name":"","type":"uint32"}],"stateMutability":"view","type":"function"},{"inputs":[{"internalType":"uint256","name":"","type":"uint256"}],"name":"questionList","outputs":[{"internalType":"uint256","name":"","type":"uint256"}],"stateMutability":"view","type":"function"},{"inputs":[],"name":"renounceOwnership","outputs":[],"stateMutability":"nonpayable","type":"function"},{"inputs":[{"internalType":"uint256","name":"_totalRewards","type":"uint256"},{"internalType":"uint256","name":"_maxAnswers","type":"uint256"},{"internalType":"uint256","name":"_deadLine","type":"uint256"}],"name":"stake","outputs":[],"stateMutability":"payable","type":"function"},{"inputs":[{"internalType":"address","name":"newOwner","type":"address"}],"name":"transferOwnership","outputs":[],"stateMutability":"nonpayable","type":"function"},{"inputs":[{"internalType":"address","name":"_account","type":"address"}],"name":"updateMyRewards","outputs":[],"stateMutability":"nonpayable","type":"function"},{"inputs":[],"name":"updateQuestionStatus","outputs":[],"stateMutability":"nonpayable","type":"function"},{"inputs":[{"internalType":"address","name":"","type":"address"}],"name":"user","outputs":[{"internalType":"uint256","name":"totalRewards","type":"uint256"}],"stateMutability":"view","type":"function"}],"bytecode":"608060405234801561001057600080fd5b506040516116a93803806116a983398101604081905261002f916100ad565b6100383361005d565b600a80546001600160a01b0319166001600160a01b03929092169190911790556100dd565b600080546001600160a01b038381166001600160a01b0319831681178455604051919092169283917f8be0079c531659141344cd1fd0a4f28419497f9722a3daafe3b4186f6b6457e09190a35050565b6000602082840312156100bf57600080fd5b81516001600160a01b03811681146100d657600080fd5b9392505050565b6115bd806100ec6000396000f3fe6080604052600436106101145760003560e01c806384c228e6116100a0578063cf8e617811610064578063cf8e617814610394578063d61588eb146103b4578063e7d3d4c2146103d4578063eaaea05c146103f4578063f2fde38b1461041457600080fd5b806384c228e6146102f55780638da5cb5b14610321578063a638f2e21461033f578063b06a5c5214610352578063ba25d7151461036f57600080fd5b80632decc41b116100e75780632decc41b146101eb578063372500ab146102025780634612e6091461020a578063715018a6146102af57806381e7e20e146102c457600080fd5b806317599cc51461011957806320b9588c14610156578063231e5d911461019e5780632da9f902146101cb575b600080fd5b34801561012557600080fd5b506101396101343660046112c7565b610434565b6040516001600160a01b0390911681526020015b60405180910390f35b34801561016257600080fd5b506101906101713660046112e0565b6001600160a01b03166000908152600260208190526040909120015490565b60405190815260200161014d565b3480156101aa57600080fd5b506101be6101b93660046112e0565b61045e565b60405161014d9190611310565b3480156101d757600080fd5b50600a54610139906001600160a01b031681565b3480156101f757600080fd5b506102006104f6565b005b6102006105db565b34801561021657600080fd5b5061026e61022536600461135a565b6001602081905260009182526040909120805491810154600282015460038301546004840154600585015460079095015493949293919260ff909116916001600160a01b031687565b60408051978852602088019690965294860193909352606085019190915260ff16608084015260a08301526001600160a01b031660c082015260e00161014d565b3480156102bb57600080fd5b506102006106c1565b3480156102d057600080fd5b506101906102df3660046112e0565b6002602081905260009182526040909120015481565b34801561030157600080fd5b5060055463ffffffff165b60405163ffffffff909116815260200161014d565b34801561032d57600080fd5b506000546001600160a01b0316610139565b61020061034d366004611380565b610727565b34801561035e57600080fd5b5060055461030c9063ffffffff1681565b34801561037b57600080fd5b50610384610ad2565b60405161014d94939291906113e7565b3480156103a057600080fd5b506101be6103af3660046112e0565b610c54565b3480156103c057600080fd5b506102006103cf36600461135a565b610cc7565b3480156103e057600080fd5b506102006103ef3660046112e0565b610f88565b34801561040057600080fd5b5061019061040f3660046112c7565b611192565b34801561042057600080fd5b5061020061042f3660046112e0565b6111b3565b6003818154811061044457600080fd5b6000918252602090912001546001600160a01b0316905081565b6001600160a01b0381166000908152600260209081526040918290208054835181840281018401909452808452606093928301828280156104ea57602002820191906000526020600020906000905b82829054906101000a900463ffffffff1663ffffffff16815260200190600401906020826003010492830192600103820291508084116104ad5790505b50505050509050919050565b60005b60055463ffffffff90811690821610156105d85763ffffffff811660009081526001602052604081206004015460ff1690036105c65763ffffffff8116600090815260016020526040902060038101546005909101546105599042611481565b11156105c65763ffffffff81166000818152600160205260409020600401805460ff191660029081179091556006805491929091811061059b5761059b611498565b90600052602060002090602091828204019190066101000a81548160ff021916908360ff1602179055505b806105d0816114ae565b9150506104f9565b50565b3360009081526002602081905260409091200154806106355760405162461bcd60e51b81526020600482015260116024820152704e6f207265776172647320666f756e642160781b60448201526064015b60405180910390fd5b600a5460405163a9059cbb60e01b8152336004820152602481018390526001600160a01b039091169063a9059cbb906044016020604051808303816000875af1158015610686573d6000803e3d6000fd5b505050506040513d601f19601f820116820180604052508101906106aa91906114d1565b505033600090815260026020819052604082200155565b6000546001600160a01b0316331461071b5760405162461bcd60e51b815260206004820181905260248201527f4f776e61626c653a2063616c6c6572206973206e6f7420746865206f776e6572604482015260640161062c565b6107256000611277565b565b600a80546040516370a0823160e01b8152336004820152662386f26fc10000929186916001600160a01b03909116906370a0823190602401602060405180830381865afa15801561077c573d6000803e3d6000fd5b505050506040513d601f19601f820116820180604052508101906107a091906114f3565b116107e55760405162461bcd60e51b8152602060048201526015602482015274496e73756666696369656e742042616c616e63652160581b604482015260640161062c565b818510156108355760405162461bcd60e51b815260206004820152601d60248201527f596f75206e65656420746f207370656e64206d6f726520746f6b656e21000000604482015260640161062c565b8083101561087b5760405162461bcd60e51b8152602060048201526013602482015272446561646c696e6520746f6f20636c6f73652160681b604482015260640161062c565b600a546040516323b872dd60e01b8152336004820152306024820152604481018790526001600160a01b03909116906323b872dd906064016020604051808303816000875af11580156108d2573d6000803e3d6000fd5b505050506040513d601f19601f820116820180604052508101906108f691906114d1565b506005805463ffffffff90811660009081526001602081815260408084208b905585548516845280842083018a90558554851684528084206003018990558554851684528084206004908101805460ff191690558654861685528185204290880155865486168552818520600790810180546001600160a01b03191633908117909155885488168752838720600290810188905590875284529185208754908501805480870182559087528487206008808304909101805492861690940261010090810a938a168402938a021990921692909217909255600680548087019091559384047ff652222313e28459528d920b65115c16c04f3efc82aaedc97be59f3f377c0d3f018054601f90951690920a60ff0219909316905581548084019092557ff3f7a9fe364faab93b216da50a3214154f22a0a2b415b23a84c8169e8b636ee390910189905580548083019091557fa66cc928b5edb82af9bd49922954155ab7b0942694bea4ce44661d9a8736c688018290556009805480830182559083527f6e1540171b6c0c960b71a7020d9f60077f6af931a8bbf590da0223dacf75c7af018990558354909392610aad9185911661150c565b92506101000a81548163ffffffff021916908363ffffffff1602179055505050505050565b606080606080600660076008600983805480602002602001604051908101604052809291908181526020018280548015610b4957602002820191906000526020600020906000905b825461010083900a900460ff16815260206001928301818104948501949093039092029101808411610b1a5790505b5050505050935082805480602002602001604051908101604052809291908181526020018280548015610b9b57602002820191906000526020600020905b815481526020019060010190808311610b87575b5050505050925081805480602002602001604051908101604052809291908181526020018280548015610bed57602002820191906000526020600020905b815481526020019060010190808311610bd9575b5050505050915080805480602002602001604051908101604052809291908181526020018280548015610c3f57602002820191906000526020600020905b815481526020019060010190808311610c2b575b50505050509050935093509350935090919293565b6001600160a01b0381166000908152600260209081526040918290206001018054835181840281018401909452808452606093928301828280156104ea576000918252602091829020805463ffffffff1684529082028301929091600491018084116104ad575094979650505050505050565b60055463ffffffff90811690821610610d185760405162461bcd60e51b81526020600482015260136024820152725175657374696f6e206e6f7420666f756e642160681b604482015260640161062c565b63ffffffff811660009081526001602052604090206004015460ff1615610d815760405162461bcd60e51b815260206004820152601b60248201527f5175657374696f6e20636c6f736564206f722065787069726564210000000000604482015260640161062c565b33600090815260026020818152604080842080546001808201835582875284872060088304018054600790931660040261010090810a63ffffffff81810219909516948b1690810294909417909155600390930180548083018255908852858820868204018054601f90921690940a60ff0219169092558552918290528320909101805491929091610e14908490611534565b909155505063ffffffff811660008181526001602052604090206002015460078054919290918110610e4857610e48611498565b600091825260208083209091019290925563ffffffff8316808252600180845260408320600681018054808401825590855294842090940180546001600160a01b031916331790559152810154600290910154036105d85763ffffffff81166000818152600160208190526040909120600401805460ff19168217905560068054919290918110610edb57610edb611498565b90600052602060002090602091828204019190066101000a81548160ff021916908360ff16021790555060005b63ffffffff821660009081526001602081905260409091200154811015610f845763ffffffff821660009081526001602052604090206006018054610f72919083908110610f5857610f58611498565b6000918252602090912001546001600160a01b0316610f88565b80610f7c8161154c565b915050610f08565b5050565b60005b6001600160a01b03821660009081526002602052604090205463ffffffff82161015610f84576001600160a01b0382166000908152600260205260408120805463ffffffff8416908110610fe157610fe1611498565b90600052602060002090600891828204019190066004029054906101000a900463ffffffff16905060026000846001600160a01b03166001600160a01b031681526020019081526020016000206003018263ffffffff168154811061104857611048611498565b60009182526020808320908204015460ff601f9092166101000a9004161515900361117f5763ffffffff811660009081526001602081905260409091206004015460ff1690036111245763ffffffff81166000908152600160205260409020600281015490546110b89190611565565b6001600160a01b038416600090815260026020819052604082200180549091906110e3908490611534565b90915550506001600160a01b0383166000908152600260205260409020600301805463ffffffff841690811061111b5761111b611498565b5060005261117f565b63ffffffff811660009081526001602052604090206004015460ff1660020361117f576001600160a01b0383166000908152600260205260409020600301805463ffffffff841690811061117a5761117a611498565b506000525b508061118a816114ae565b915050610f8b565b600481815481106111a257600080fd5b600091825260209091200154905081565b6000546001600160a01b0316331461120d5760405162461bcd60e51b815260206004820181905260248201527f4f776e61626c653a2063616c6c6572206973206e6f7420746865206f776e6572604482015260640161062c565b6001600160a01b0381166112725760405162461bcd60e51b815260206004820152602660248201527f4f776e61626c653a206e6577206f776e657220697320746865207a65726f206160448201526564647265737360d01b606482015260840161062c565b6105d8815b600080546001600160a01b038381166001600160a01b0319831681178455604051919092169283917f8be0079c531659141344cd1fd0a4f28419497f9722a3daafe3b4186f6b6457e09190a35050565b6000602082840312156112d957600080fd5b5035919050565b6000602082840312156112f257600080fd5b81356001600160a01b038116811461130957600080fd5b9392505050565b6020808252825182820181905260009190848201906040850190845b8181101561134e57835163ffffffff168352928401929184019160010161132c565b50909695505050505050565b60006020828403121561136c57600080fd5b813563ffffffff8116811461130957600080fd5b60008060006060848603121561139557600080fd5b505081359360208301359350604090920135919050565b600081518084526020808501945080840160005b838110156113dc578151875295820195908201906001016113c0565b509495945050505050565b6080808252855190820181905260009060209060a0840190828901845b8281101561142357815160ff1684529284019290840190600101611404565b5050508381038285015261143781886113ac565b915050828103604084015261144c81866113ac565b9050828103606084015261146081856113ac565b979650505050505050565b634e487b7160e01b600052601160045260246000fd5b6000828210156114935761149361146b565b500390565b634e487b7160e01b600052603260045260246000fd5b600063ffffffff8083168181036114c7576114c761146b565b6001019392505050565b6000602082840312156114e357600080fd5b8151801515811461130957600080fd5b60006020828403121561150557600080fd5b5051919050565b600063ffffffff80831681851680830382111561152b5761152b61146b565b01949350505050565b600082198211156115475761154761146b565b500190565b60006001820161155e5761155e61146b565b5060010190565b60008261158257634e487b7160e01b600052601260045260246000fd5b50049056fea2646970667358221220c9472d720697b8bd9a37d32d1de04a42d6bd74b942381111adabbee1b4de18ed64736f6c634300080f0033","bytecodeSha1":"0c64489740e2f5b2024156c17b09d2520161ece0","compiler":{"evm_version":"istanbul","optimizer":{"enabled":true,"runs":200},"version":"0.8.15+commit.e14f2714"},"contractName":"MainRouter","language":"Solidity","natspec":{"kind":"dev","methods":{"owner()":{"details":"Returns the address of the current owner."},"renounceOwnership()":{"details":"Leaves the contract without owner. It will not be possible to call `onlyOwner` functions anymore. Can only be called by the current owner. NOTE: Renouncing ownership will leave the contract without an owner, thereby removing any functionality that is only available to the owner."},"transferOwnership(address)":{"details":"Transfers ownership of the contract to a new account (`newOwner`). Can only be called by the current owner."}},"version":1},"opcodes":"PUSH1 0x80 PUSH1 0x40 MSTORE PUSH1 0x4 CALLDATASIZE LT PUSH2 0x114 JUMPI PUSH1 0x0 CALLDATALOAD PUSH1 0xE0 SHR DUP1 PUSH4 0x84C228E6 GT PUSH2 0xA0 JUMPI DUP1 PUSH4 0xCF8E6178 GT PUSH2 0x64 JUMPI DUP1 PUSH4 0xCF8E6178 EQ PUSH2 0x394 JUMPI DUP1 PUSH4 0xD61588EB EQ PUSH2 0x3B4 JUMPI DUP1 PUSH4 0xE7D3D4C2 EQ PUSH2 0x3D4 JUMPI DUP1 PUSH4 0xEAAEA05C EQ PUSH2 0x3F4 JUMPI DUP1 PUSH4 0xF2FDE38B EQ PUSH2 0x414 JUMPI PUSH1 0x0 DUP1 REVERT JUMPDEST DUP1 PUSH4 0x84C228E6 EQ PUSH2 0x2F5 JUMPI DUP1 PUSH4 0x8DA5CB5B EQ PUSH2 0x321 JUMPI DUP1 PUSH4 0xA638F2E2 EQ PUSH2 0x33F JUMPI DUP1 PUSH4 0xB06A5C52 EQ PUSH2 0x352 JUMPI DUP1 PUSH4 0xBA25D715 EQ PUSH2 0x36F JUMPI PUSH1 0x0 DUP1 REVERT JUMPDEST DUP1 PUSH4 0x2DECC41B GT PUSH2 0xE7 JUMPI DUP1 PUSH4 0x2DECC41B EQ PUSH2 0x1EB JUMPI DUP1 PUSH4 0x372500AB EQ PUSH2 0x202 JUMPI DUP1 PUSH4 0x4612E609 EQ PUSH2 0x20A JUMPI DUP1 PUSH4 0x715018A6 EQ PUSH2 0x2AF JUMPI DUP1 PUSH4 0x81E7E20E EQ PUSH2 0x2C4 JUMPI PUSH1 0x0 DUP1 REVERT JUMPDEST DUP1 PUSH4 0x17599CC5 EQ PUSH2 0x119 JUMPI DUP1 PUSH4 0x20B9588C EQ PUSH2 0x156 JUMPI DUP1 PUSH4 0x231E5D91 EQ PUSH2 0x19E JUMPI DUP1 PUSH4 0x2DA9F902 EQ PUSH2 0x1CB JUMPI JUMPDEST PUSH1 0x0 DUP1 REVERT JUMPDEST CALLVALUE DUP1 ISZERO PUSH2 0x125 JUMPI PUSH1 0x0 DUP1 REVERT JUMPDEST POP PUSH2 0x139 PUSH2 0x134 CALLDATASIZE PUSH1 0x4 PUSH2 0x12C7 JUMP JUMPDEST PUSH2 0x434 JUMP JUMPDEST PUSH1 0x40 MLOAD PUSH1 0x1 PUSH1 0x1 PUSH1 0xA0 SHL SUB SWAP1 SWAP2 AND DUP2 MSTORE PUSH1 0x20 ADD JUMPDEST PUSH1 0x40 MLOAD DUP1 SWAP2 SUB SWAP1 RETURN JUMPDEST CALLVALUE DUP1 ISZERO PUSH2 0x162 JUMPI PUSH1 0x0 DUP1 REVERT JUMPDEST POP PUSH2 0x190 PUSH2 0x171 CALLDATASIZE PUSH1 0x4 PUSH2 0x12E0 JUMP JUMPDEST PUSH1 0x1 PUSH1 0x1 PUSH1 0xA0 SHL SUB AND PUSH1 0x0 SWAP1 DUP2 MSTORE PUSH1 0x2 PUSH1 0x20 DUP2 SWAP1 MSTORE PUSH1 0x40 SWAP1 SWAP2 KECCAK256 ADD SLOAD SWAP1 JUMP JUMPDEST PUSH1 0x40 MLOAD SWAP1 DUP2 MSTORE PUSH1 0x20 ADD PUSH2 0x14D JUMP JUMPDEST CALLVALUE DUP1 ISZERO PUSH2 0x1AA JUMPI PUSH1 0x0 DUP1 REVERT JUMPDEST POP PUSH2 0x1BE PUSH2 0x1B9 CALLDATASIZE PUSH1 0x4 PUSH2 0x12E0 JUMP JUMPDEST PUSH2 0x45E JUMP JUMPDEST PUSH1 0x40 MLOAD PUSH2 0x14D SWAP2 SWAP1 PUSH2 0x1310 JUMP JUMPDEST CALLVALUE DUP1 ISZERO PUSH2 0x1D7 JUMPI PUSH1 0x0 DUP1 REVERT JUMPDEST POP PUSH1 0xA SLOAD PUSH2 0x139 SWAP1 PUSH1 0x1 PUSH1 0x1 PUSH1 0xA0 SHL SUB AND DUP2 JUMP JUMPDEST CALLVALUE DUP1 ISZERO PUSH2 0x1F7 JUMPI PUSH1 0x0 DUP1 REVERT JUMPDEST POP PUSH2 0x200 PUSH2 0x4F6 JUMP JUMPDEST STOP JUMPDEST PUSH2 0x200 PUSH2 0x5DB JUMP JUMPDEST CALLVALUE DUP1 ISZERO PUSH2 0x216 JUMPI PUSH1 0x0 DUP1 REVERT JUMPDEST POP PUSH2 0x26E PUSH2 0x225 CALLDATASIZE PUSH1 0x4 PUSH2 0x135A JUMP JUMPDEST PUSH1 0x1 PUSH1 0x20 DUP2 SWAP1 MSTORE PUSH1 0x0 SWAP2 DUP3 MSTORE PUSH1 0x40 SWAP1 SWAP2 KECCAK256 DUP1 SLOAD SWAP2 DUP2 ADD SLOAD PUSH1 0x2 DUP3 ADD SLOAD PUSH1 0x3 DUP4 ADD SLOAD PUSH1 0x4 DUP5 ADD SLOAD PUSH1 0x5 DUP6 ADD SLOAD PUSH1 0x7 SWAP1 SWAP6 ADD SLOAD SWAP4 SWAP5 SWAP3 SWAP4 SWAP2 SWAP3 PUSH1 0xFF SWAP1 SWAP2 AND SWAP2 PUSH1 0x1 PUSH1 0x1 PUSH1 0xA0 SHL SUB AND DUP8 JUMP JUMPDEST PUSH1 0x40 DUP1 MLOAD SWAP8 DUP9 MSTORE PUSH1 0x20 DUP9 ADD SWAP7 SWAP1 SWAP7 MSTORE SWAP5 DUP7 ADD SWAP4 SWAP1 SWAP4 MSTORE PUSH1 0x60 DUP6 ADD SWAP2 SWAP1 SWAP2 MSTORE PUSH1 0xFF AND PUSH1 0x80 DUP5 ADD MSTORE PUSH1 0xA0 DUP4 ADD MSTORE PUSH1 0x1 PUSH1 0x1 PUSH1 0xA0 SHL SUB AND PUSH1 0xC0 DUP3 ADD MSTORE PUSH1 0xE0 ADD PUSH2 0x14D JUMP JUMPDEST CALLVALUE DUP1 ISZERO PUSH2 0x2BB JUMPI PUSH1 0x0 DUP1 REVERT JUMPDEST POP PUSH2 0x200 PUSH2 0x6C1 JUMP JUMPDEST CALLVALUE DUP1 ISZERO PUSH2 0x2D0 JUMPI PUSH1 0x0 DUP1 REVERT JUMPDEST POP PUSH2 0x190 PUSH2 0x2DF CALLDATASIZE PUSH1 0x4 PUSH2 0x12E0 JUMP JUMPDEST PUSH1 0x2 PUSH1 0x20 DUP2 SWAP1 MSTORE PUSH1 0x0 SWAP2 DUP3 MSTORE PUSH1 0x40 SWAP1 SWAP2 KECCAK256 ADD SLOAD DUP2 JUMP JUMPDEST CALLVALUE DUP1 ISZERO PUSH2 0x301 JUMPI PUSH1 0x0 DUP1 REVERT JUMPDEST POP PUSH1 0x5 SLOAD PUSH4 0xFFFFFFFF AND JUMPDEST PUSH1 0x40 MLOAD PUSH4 0xFFFFFFFF SWAP1 SWAP2 AND DUP2 MSTORE PUSH1 0x20 ADD PUSH2 0x14D JUMP JUMPDEST CALLVALUE DUP1 ISZERO PUSH2 0x32D JUMPI PUSH1 0x0 DUP1 REVERT JUMPDEST POP PUSH1 0x0 SLOAD PUSH1 0x1 PUSH1 0x1 PUSH1 0xA0 SHL SUB AND PUSH2 0x139 JUMP JUMPDEST PUSH2 0x200 PUSH2 0x34D CALLDATASIZE PUSH1 0x4 PUSH2 0x1380 JUMP JUMPDEST PUSH2 0x727 JUMP JUMPDEST CALLVALUE DUP1 ISZERO PUSH2 0x35E JUMPI PUSH1 0x0 DUP1 REVERT JUMPDEST POP PUSH1 0x5 SLOAD PUSH2 0x30C SWAP1 PUSH4 0xFFFFFFFF AND DUP2 JUMP JUMPDEST CALLVALUE DUP1 ISZERO PUSH2 0x37B JUMPI PUSH1 0x0 DUP1 REVERT JUMPDEST POP PUSH2 0x384 PUSH2 0xAD2 JUMP JUMPDEST PUSH1 0x40 MLOAD PUSH2 0x14D SWAP5 SWAP4 SWAP3 SWAP2 SWAP1 PUSH2 0x13E7 JUMP JUMPDEST CALLVALUE DUP1 ISZERO PUSH2 0x3A0 JUMPI PUSH1 0x0 DUP1 REVERT JUMPDEST POP PUSH2 0x1BE PUSH2 0x3AF CALLDATASIZE PUSH1 0x4 PUSH2 0x12E0 JUMP JUMPDEST PUSH2 0xC54 JUMP JUMPDEST CALLVALUE DUP1 ISZERO PUSH2 0x3C0 JUMPI PUSH1 0x0 DUP1 REVERT JUMPDEST POP PUSH2 0x200 PUSH2 0x3CF CALLDATASIZE PUSH1 0x4 PUSH2 0x135A JUMP JUMPDEST PUSH2 0xCC7 JUMP JUMPDEST CALLVALUE DUP1 ISZERO PUSH2 0x3E0 JUMPI PUSH1 0x0 DUP1 REVERT JUMPDEST POP PUSH2 0x200 PUSH2 0x3EF CALLDATASIZE PUSH1 0x4 PUSH2 0x12E0 JUMP JUMPDEST PUSH2 0xF88 JUMP JUMPDEST CALLVALUE DUP1 ISZERO PUSH2 0x400 JUMPI PUSH1 0x0 DUP1 REVERT JUMPDEST POP PUSH2 0x190 PUSH2 0x40F CALLDATASIZE PUSH1 0x4 PUSH2 0x12C7 JUMP JUMPDEST PUSH2 0x1192 JUMP JUMPDEST CALLVALUE DUP1 ISZERO PUSH2 0x420 JUMPI PUSH1 0x0 DUP1 REVERT JUMPDEST POP PUSH2 0x200 PUSH2 0x42F CALLDATASIZE PUSH1 0x4 PUSH2 0x12E0 JUMP JUMPDEST PUSH2 0x11B3 JUMP JUMPDEST PUSH1 0x3 DUP2 DUP2 SLOAD DUP2 LT PUSH2 0x444 JUMPI PUSH1 0x0 DUP1 REVERT JUMPDEST PUSH1 0x0 SWAP2 DUP3 MSTORE PUSH1 0x20 SWAP1 SWAP2 KECCAK256 ADD SLOAD PUSH1 0x1 PUSH1 0x1 PUSH1 0xA0 SHL SUB AND SWAP1 POP DUP2 JUMP JUMPDEST PUSH1 0x1 PUSH1 0x1 PUSH1 0xA0 SHL SUB DUP2 AND PUSH1 0x0 SWAP1 DUP2 MSTORE PUSH1 0x2 PUSH1 0x20 SWAP1 DUP2 MSTORE PUSH1 0x40 SWAP2 DUP3 SWAP1 KECCAK256 DUP1 SLOAD DUP4 MLOAD DUP2 DUP5 MUL DUP2 ADD DUP5 ADD SWAP1 SWAP5 MSTORE DUP1 DUP5 MSTORE PUSH1 0x60 SWAP4 SWAP3 DUP4 ADD DUP3 DUP3 DUP1 ISZERO PUSH2 0x4EA JUMPI PUSH1 0x20 MUL DUP3 ADD SWAP2 SWAP1 PUSH1 0x0 MSTORE PUSH1 0x20 PUSH1 0x0 KECCAK256 SWAP1 PUSH1 0x0 SWAP1 JUMPDEST DUP3 DUP3 SWAP1 SLOAD SWAP1 PUSH2 0x100 EXP SWAP1 DIV PUSH4 0xFFFFFFFF AND PUSH4 0xFFFFFFFF AND DUP2 MSTORE PUSH1 0x20 ADD SWAP1 PUSH1 0x4 ADD SWAP1 PUSH1 0x20 DUP3 PUSH1 0x3 ADD DIV SWAP3 DUP4 ADD SWAP3 PUSH1 0x1 SUB DUP3 MUL SWAP2 POP DUP1 DUP5 GT PUSH2 0x4AD JUMPI SWAP1 POP JUMPDEST POP POP POP POP POP SWAP1 POP SWAP2 SWAP1 POP JUMP JUMPDEST PUSH1 0x0 JUMPDEST PUSH1 0x5 SLOAD PUSH4 0xFFFFFFFF SWAP1 DUP2 AND SWAP1 DUP3 AND LT ISZERO PUSH2 0x5D8 JUMPI PUSH4 0xFFFFFFFF DUP2 AND PUSH1 0x0 SWAP1 DUP2 MSTORE PUSH1 0x1 PUSH1 0x20 MSTORE PUSH1 0x40 DUP2 KECCAK256 PUSH1 0x4 ADD SLOAD PUSH1 0xFF AND SWAP1 SUB PUSH2 0x5C6 JUMPI PUSH4 0xFFFFFFFF DUP2 AND PUSH1 0x0 SWAP1 DUP2 MSTORE PUSH1 0x1 PUSH1 0x20 MSTORE PUSH1 0x40 SWAP1 KECCAK256 PUSH1 0x3 DUP2 ADD SLOAD PUSH1 0x5 SWAP1 SWAP2 ADD SLOAD PUSH2 0x559 SWAP1 TIMESTAMP PUSH2 0x1481 JUMP JUMPDEST GT ISZERO PUSH2 0x5C6 JUMPI PUSH4 0xFFFFFFFF DUP2 AND PUSH1 0x0 DUP2 DUP2 MSTORE PUSH1 0x1 PUSH1 0x20 MSTORE PUSH1 0x40 SWAP1 KECCAK256 PUSH1 0x4 ADD DUP1 SLOAD PUSH1 0xFF NOT AND PUSH1 0x2 SWAP1 DUP2 OR SWAP1 SWAP2 SSTORE PUSH1 0x6 DUP1 SLOAD SWAP2 SWAP3 SWAP1 SWAP2 DUP2 LT PUSH2 0x59B JUMPI PUSH2 0x59B PUSH2 0x1498 JUMP JUMPDEST SWAP1 PUSH1 0x0 MSTORE PUSH1 0x20 PUSH1 0x0 KECCAK256 SWAP1 PUSH1 0x20 SWAP2 DUP3 DUP3 DIV ADD SWAP2 SWAP1 MOD PUSH2 0x100 EXP DUP2 SLOAD DUP2 PUSH1 0xFF MUL NOT AND SWAP1 DUP4 PUSH1 0xFF AND MUL OR SWAP1 SSTORE POP JUMPDEST DUP1 PUSH2 0x5D0 DUP2 PUSH2 0x14AE JUMP JUMPDEST SWAP2 POP POP PUSH2 0x4F9 JUMP JUMPDEST POP JUMP JUMPDEST CALLER PUSH1 0x0 SWAP1 DUP2 MSTORE PUSH1 0x2 PUSH1 0x20 DUP2 SWAP1 MSTORE PUSH1 0x40 SWAP1 SWAP2 KECCAK256 ADD SLOAD DUP1 PUSH2 0x635 JUMPI PUSH1 0x40 MLOAD PUSH3 0x461BCD PUSH1 0xE5 SHL DUP2 MSTORE PUSH1 0x20 PUSH1 0x4 DUP3 ADD MSTORE PUSH1 0x11 PUSH1 0x24 DUP3 ADD MSTORE PUSH17 0x4E6F207265776172647320666F756E6421 PUSH1 0x78 SHL PUSH1 0x44 DUP3 ADD MSTORE PUSH1 0x64 ADD JUMPDEST PUSH1 0x40 MLOAD DUP1 SWAP2 SUB SWAP1 REVERT JUMPDEST PUSH1 0xA SLOAD PUSH1 0x40 MLOAD PUSH4 0xA9059CBB PUSH1 0xE0 SHL DUP2 MSTORE CALLER PUSH1 0x4 DUP3 ADD MSTORE PUSH1 0x24 DUP2 ADD DUP4 SWAP1 MSTORE PUSH1 0x1 PUSH1 0x1 PUSH1 0xA0 SHL SUB SWAP1 SWAP2 AND SWAP1 PUSH4 0xA9059CBB SWAP1 PUSH1 0x44 ADD PUSH1 0x20 PUSH1 0x40 MLOAD DUP1 DUP4 SUB DUP2 PUSH1 0x0 DUP8 GAS CALL ISZERO DUP1 ISZERO PUSH2 0x686 JUMPI RETURNDATASIZE PUSH1 0x0 DUP1 RETURNDATACOPY RETURNDATASIZE PUSH1 0x0 REVERT JUMPDEST POP POP POP POP PUSH1 0x40 MLOAD RETURNDATASIZE PUSH1 0x1F NOT PUSH1 0x1F DUP3 ADD AND DUP3 ADD DUP1 PUSH1 0x40 MSTORE POP DUP2 ADD SWAP1 PUSH2 0x6AA SWAP2 SWAP1 PUSH2 0x14D1 JUMP JUMPDEST POP POP CALLER PUSH1 0x0 SWAP1 DUP2 MSTORE PUSH1 0x2 PUSH1 0x20 DUP2 SWAP1 MSTORE PUSH1 0x40 DUP3 KECCAK256 ADD SSTORE JUMP JUMPDEST PUSH1 0x0 SLOAD PUSH1 0x1 PUSH1 0x1 PUSH1 0xA0 SHL SUB AND CALLER EQ PUSH2 0x71B JUMPI PUSH1 0x40 MLOAD PUSH3 0x461BCD PUSH1 0xE5 SHL DUP2 MSTORE PUSH1 0x20 PUSH1 0x4 DUP3 ADD DUP2 SWAP1 MSTORE PUSH1 0x24 DUP3 ADD MSTORE PUSH32 0x4F776E61626C653A2063616C6C6572206973206E6F7420746865206F776E6572 PUSH1 0x44 DUP3 ADD MSTORE PUSH1 0x64 ADD PUSH2 0x62C JUMP JUMPDEST PUSH2 0x725 PUSH1 0x0 PUSH2 0x1277 JUMP JUMPDEST JUMP JUMPDEST PUSH1 0xA DUP1 SLOAD PUSH1 0x40 MLOAD PUSH4 0x70A08231 PUSH1 0xE0 SHL DUP2 MSTORE CALLER PUSH1 0x4 DUP3 ADD MSTORE PUSH7 0x2386F26FC10000 SWAP3 SWAP2 DUP7 SWAP2 PUSH1 0x1 PUSH1 0x1 PUSH1 0xA0 SHL SUB SWAP1 SWAP2 AND SWAP1 PUSH4 0x70A08231 SWAP1 PUSH1 0x24 ADD PUSH1 0x20 PUSH1 0x40 MLOAD DUP1 DUP4 SUB DUP2 DUP7 GAS STATICCALL ISZERO DUP1 ISZERO PUSH2 0x77C JUMPI RETURNDATASIZE PUSH1 0x0 DUP1 RETURNDATACOPY RETURNDATASIZE PUSH1 0x0 REVERT JUMPDEST POP POP POP POP PUSH1 0x40 MLOAD RETURNDATASIZE PUSH1 0x1F NOT PUSH1 0x1F DUP3 ADD AND DUP3 ADD DUP1 PUSH1 0x40 MSTORE POP DUP2 ADD SWAP1 PUSH2 0x7A0 SWAP2 SWAP1 PUSH2 0x14F3 JUMP JUMPDEST GT PUSH2 0x7E5 JUMPI PUSH1 0x40 MLOAD PUSH3 0x461BCD PUSH1 0xE5 SHL DUP2 MSTORE PUSH1 0x20 PUSH1 0x4 DUP3 ADD MSTORE PUSH1 0x15 PUSH1 0x24 DUP3 ADD MSTORE PUSH21 0x496E73756666696369656E742042616C616E636521 PUSH1 0x58 SHL PUSH1 0x44 DUP3 ADD MSTORE PUSH1 0x64 ADD PUSH2 0x62C JUMP JUMPDEST DUP2 DUP6 LT ISZERO PUSH2 0x835 JUMPI PUSH1 0x40 MLOAD PUSH3 0x461BCD PUSH1 0xE5 SHL DUP2 MSTORE PUSH1 0x20 PUSH1 0x4 DUP3 ADD MSTORE PUSH1 0x1D PUSH1 0x24 DUP3 ADD MSTORE PUSH32 0x596F75206E65656420746F207370656E64206D6F726520746F6B656E21000000 PUSH1 0x44 DUP3 ADD MSTORE PUSH1 0x64 ADD PUSH2 0x62C JUMP JUMPDEST DUP1 DUP4 LT ISZERO PUSH2 0x87B JUMPI PUSH1 0x40 MLOAD PUSH3 0x461BCD PUSH1 0xE5 SHL DUP2 MSTORE PUSH1 0x20 PUSH1 0x4 DUP3 ADD MSTORE PUSH1 0x13 PUSH1 0x24 DUP3 ADD MSTORE PUSH19 0x446561646C696E6520746F6F20636C6F736521 PUSH1 0x68 SHL PUSH1 0x44 DUP3 ADD MSTORE PUSH1 0x64 ADD PUSH2 0x62C JUMP JUMPDEST PUSH1 0xA SLOAD PUSH1 0x40 MLOAD PUSH4 0x23B872DD PUSH1 0xE0 SHL DUP2 MSTORE CALLER PUSH1 0x4 DUP3 ADD MSTORE ADDRESS PUSH1 0x24 DUP3 ADD MSTORE PUSH1 0x44 DUP2 ADD DUP8 SWAP1 MSTORE PUSH1 0x1 PUSH1 0x1 PUSH1 0xA0 SHL SUB SWAP1 SWAP2 AND SWAP1 PUSH4 0x23B872DD SWAP1 PUSH1 0x64 ADD PUSH1 0x20 PUSH1 0x40 MLOAD DUP1 DUP4 SUB DUP2 PUSH1 0x0 DUP8 GAS CALL ISZERO DUP1 ISZERO PUSH2 0x8D2 JUMPI RETURNDATASIZE PUSH1 0x0 DUP1 RETURNDATACOPY RETURNDATASIZE PUSH1 0x0 REVERT JUMPDEST POP POP POP POP PUSH1 0x40 MLOAD RETURNDATASIZE PUSH1 0x1F NOT PUSH1 0x1F DUP3 ADD AND DUP3 ADD DUP1 PUSH1 0x40 MSTORE POP DUP2 ADD SWAP1 PUSH2 0x8F6 SWAP2 SWAP1 PUSH2 0x14D1 JUMP JUMPDEST POP PUSH1 0x5 DUP1 SLOAD PUSH4 0xFFFFFFFF SWAP1 DUP2 AND PUSH1 0x0 SWAP1 DUP2 MSTORE PUSH1 0x1 PUSH1 0x20 DUP2 DUP2 MSTORE PUSH1 0x40 DUP1 DUP5 KECCAK256 DUP12 SWAP1 SSTORE DUP6 SLOAD DUP6 AND DUP5 MSTORE DUP1 DUP5 KECCAK256 DUP4 ADD DUP11 SWAP1 SSTORE DUP6 SLOAD DUP6 AND DUP5 MSTORE DUP1 DUP5 KECCAK256 PUSH1 0x3 ADD DUP10 SWAP1 SSTORE DUP6 SLOAD DUP6 AND DUP5 MSTORE DUP1 DUP5 KECCAK256 PUSH1 0x4 SWAP1 DUP2 ADD DUP1 SLOAD PUSH1 0xFF NOT AND SWAP1 SSTORE DUP7 SLOAD DUP7 AND DUP6 MSTORE DUP2 DUP6 KECCAK256 TIMESTAMP SWAP1 DUP9 ADD SSTORE DUP7 SLOAD DUP7 AND DUP6 MSTORE DUP2 DUP6 KECCAK256 PUSH1 0x7 SWAP1 DUP2 ADD DUP1 SLOAD PUSH1 0x1 PUSH1 0x1 PUSH1 0xA0 SHL SUB NOT AND CALLER SWAP1 DUP2 OR SWAP1 SWAP2 SSTORE DUP9 SLOAD DUP9 AND DUP8 MSTORE DUP4 DUP8 KECCAK256 PUSH1 0x2 SWAP1 DUP2 ADD DUP9 SWAP1 SSTORE SWAP1 DUP8 MSTORE DUP5 MSTORE SWAP2 DUP6 KECCAK256 DUP8 SLOAD SWAP1 DUP6 ADD DUP1 SLOAD DUP1 DUP8 ADD DUP3 SSTORE SWAP1 DUP8 MSTORE DUP5 DUP8 KECCAK256 PUSH1 0x8 DUP1 DUP4 DIV SWAP1 SWAP2 ADD DUP1 SLOAD SWAP3 DUP7 AND SWAP1 SWAP5 MUL PUSH2 0x100 SWAP1 DUP2 EXP SWAP4 DUP11 AND DUP5 MUL SWAP4 DUP11 MUL NOT SWAP1 SWAP3 AND SWAP3 SWAP1 SWAP3 OR SWAP1 SWAP3 SSTORE PUSH1 0x6 DUP1 SLOAD DUP1 DUP8 ADD SWAP1 SWAP2 SSTORE SWAP4 DUP5 DIV PUSH32 0xF652222313E28459528D920B65115C16C04F3EFC82AAEDC97BE59F3F377C0D3F ADD DUP1 SLOAD PUSH1 0x1F SWAP1 SWAP6 AND SWAP1 SWAP3 EXP PUSH1 0xFF MUL NOT SWAP1 SWAP4 AND SWAP1 SSTORE DUP2 SLOAD DUP1 DUP5 ADD SWAP1 SWAP3 SSTORE PUSH32 0xF3F7A9FE364FAAB93B216DA50A3214154F22A0A2B415B23A84C8169E8B636EE3 SWAP1 SWAP2 ADD DUP10 SWAP1 SSTORE DUP1 SLOAD DUP1 DUP4 ADD SWAP1 SWAP2 SSTORE PUSH32 0xA66CC928B5EDB82AF9BD49922954155AB7B0942694BEA4CE44661D9A8736C688 ADD DUP3 SWAP1 SSTORE PUSH1 0x9 DUP1 SLOAD DUP1 DUP4 ADD DUP3 SSTORE SWAP1 DUP4 MSTORE PUSH32 0x6E1540171B6C0C960B71A7020D9F60077F6AF931A8BBF590DA0223DACF75C7AF ADD DUP10 SWAP1 SSTORE DUP4 SLOAD SWAP1 SWAP4 SWAP3 PUSH2 0xAAD SWAP2 DUP6 SWAP2 AND PUSH2 0x150C JUMP JUMPDEST SWAP3 POP PUSH2 0x100 EXP DUP2 SLOAD DUP2 PUSH4 0xFFFFFFFF MUL NOT AND SWAP1 DUP4 PUSH4 0xFFFFFFFF AND MUL OR SWAP1 SSTORE POP POP POP POP POP POP JUMP JUMPDEST PUSH1 0x60 DUP1 PUSH1 0x60 DUP1 PUSH1 0x6 PUSH1 0x7 PUSH1 0x8 PUSH1 0x9 DUP4 DUP1 SLOAD DUP1 PUSH1 0x20 MUL PUSH1 0x20 ADD PUSH1 0x40 MLOAD SWAP1 DUP2 ADD PUSH1 0x40 MSTORE DUP1 SWAP3 SWAP2 SWAP1 DUP2 DUP2 MSTORE PUSH1 0x20 ADD DUP3 DUP1 SLOAD DUP1 ISZERO PUSH2 0xB49 JUMPI PUSH1 0x20 MUL DUP3 ADD SWAP2 SWAP1 PUSH1 0x0 MSTORE PUSH1 0x20 PUSH1 0x0 KECCAK256 SWAP1 PUSH1 0x0 SWAP1 JUMPDEST DUP3 SLOAD PUSH2 0x100 DUP4 SWAP1 EXP SWAP1 DIV PUSH1 0xFF AND DUP2 MSTORE PUSH1 0x20 PUSH1 0x1 SWAP3 DUP4 ADD DUP2 DUP2 DIV SWAP5 DUP6 ADD SWAP5 SWAP1 SWAP4 SUB SWAP1 SWAP3 MUL SWAP2 ADD DUP1 DUP5 GT PUSH2 0xB1A JUMPI SWAP1 POP JUMPDEST POP POP POP POP POP SWAP4 POP DUP3 DUP1 SLOAD DUP1 PUSH1 0x20 MUL PUSH1 0x20 ADD PUSH1 0x40 MLOAD SWAP1 DUP2 ADD PUSH1 0x40 MSTORE DUP1 SWAP3 SWAP2 SWAP1 DUP2 DUP2 MSTORE PUSH1 0x20 ADD DUP3 DUP1 SLOAD DUP1 ISZERO PUSH2 0xB9B JUMPI PUSH1 0x20 MUL DUP3 ADD SWAP2 SWAP1 PUSH1 0x0 MSTORE PUSH1 0x20 PUSH1 0x0 KECCAK256 SWAP1 JUMPDEST DUP2 SLOAD DUP2 MSTORE PUSH1 0x20 ADD SWAP1 PUSH1 0x1 ADD SWAP1 DUP1 DUP4 GT PUSH2 0xB87 JUMPI JUMPDEST POP POP POP POP POP SWAP3 POP DUP2 DUP1 SLOAD DUP1 PUSH1 0x20 MUL PUSH1 0x20 ADD PUSH1 0x40 MLOAD SWAP1 DUP2 ADD PUSH1 0x40 MSTORE DUP1 SWAP3 SWAP2 SWAP1 DUP2 DUP2 MSTORE PUSH1 0x20 ADD DUP3 DUP1 SLOAD DUP1 ISZERO PUSH2 0xBED JUMPI PUSH1 0x20 MUL DUP3 ADD SWAP2 SWAP1 PUSH1 0x0 MSTORE PUSH1 0x20 PUSH1 0x0 KECCAK256 SWAP1 JUMPDEST DUP2 SLOAD DUP2 MSTORE PUSH1 0x20 ADD SWAP1 PUSH1 0x1 ADD SWAP1 DUP1 DUP4 GT PUSH2 0xBD9 JUMPI JUMPDEST POP POP POP POP POP SWAP2 POP DUP1 DUP1 SLOAD DUP1 PUSH1 0x20 MUL PUSH1 0x20 ADD PUSH1 0x40 MLOAD SWAP1 DUP2 ADD PUSH1 0x40 MSTORE DUP1 SWAP3 SWAP2 SWAP1 DUP2 DUP2 MSTORE PUSH1 0x20 ADD DUP3 DUP1 SLOAD DUP1 ISZERO PUSH2 0xC3F JUMPI PUSH1 0x20 MUL DUP3 ADD SWAP2 SWAP1 PUSH1 0x0 MSTORE PUSH1 0x20 PUSH1 0x0 KECCAK256 SWAP1 JUMPDEST DUP2 SLOAD DUP2 MSTORE PUSH1 0x20 ADD SWAP1 PUSH1 0x1 ADD SWAP1 DUP1 DUP4 GT PUSH2 0xC2B JUMPI JUMPDEST POP POP POP POP POP SWAP1 POP SWAP4 POP SWAP4 POP SWAP4 POP SWAP4 POP SWAP1 SWAP2 SWAP3 SWAP4 JUMP JUMPDEST PUSH1 0x1 PUSH1 0x1 PUSH1 0xA0 SHL SUB DUP2 AND PUSH1 0x0 SWAP1 DUP2 MSTORE PUSH1 0x2 PUSH1 0x20 SWAP1 DUP2 MSTORE PUSH1 0x40 SWAP2 DUP3 SWAP1 KECCAK256 PUSH1 0x1 ADD DUP1 SLOAD DUP4 MLOAD DUP2 DUP5 MUL DUP2 ADD DUP5 ADD SWAP1 SWAP5 MSTORE DUP1 DUP5 MSTORE PUSH1 0x60 SWAP4 SWAP3 DUP4 ADD DUP3 DUP3 DUP1 ISZERO PUSH2 0x4EA JUMPI PUSH1 0x0 SWAP2 DUP3 MSTORE PUSH1 0x20 SWAP2 DUP3 SWAP1 KECCAK256 DUP1 SLOAD PUSH4 0xFFFFFFFF AND DUP5 MSTORE SWAP1 DUP3 MUL DUP4 ADD SWAP3 SWAP1 SWAP2 PUSH1 0x4 SWAP2 ADD DUP1 DUP5 GT PUSH2 0x4AD JUMPI POP SWAP5 SWAP8 SWAP7 POP POP POP POP POP POP POP JUMP JUMPDEST PUSH1 0x5 SLOAD PUSH4 0xFFFFFFFF SWAP1 DUP2 AND SWAP1 DUP3 AND LT PUSH2 0xD18 JUMPI PUSH1 0x40 MLOAD PUSH3 0x461BCD PUSH1 0xE5 SHL DUP2 MSTORE PUSH1 0x20 PUSH1 0x4 DUP3 ADD MSTORE PUSH1 0x13 PUSH1 0x24 DUP3 ADD MSTORE PUSH19 0x5175657374696F6E206E6F7420666F756E6421 PUSH1 0x68 SHL PUSH1 0x44 DUP3 ADD MSTORE PUSH1 0x64 ADD PUSH2 0x62C JUMP JUMPDEST PUSH4 0xFFFFFFFF DUP2 AND PUSH1 0x0 SWAP1 DUP2 MSTORE PUSH1 0x1 PUSH1 0x20 MSTORE PUSH1 0x40 SWAP1 KECCAK256 PUSH1 0x4 ADD SLOAD PUSH1 0xFF AND ISZERO PUSH2 0xD81 JUMPI PUSH1 0x40 MLOAD PUSH3 0x461BCD PUSH1 0xE5 SHL DUP2 MSTORE PUSH1 0x20 PUSH1 0x4 DUP3 ADD MSTORE PUSH1 0x1B PUSH1 0x24 DUP3 ADD MSTORE PUSH32 0x5175657374696F6E20636C6F736564206F722065787069726564210000000000 PUSH1 0x44 DUP3 ADD MSTORE PUSH1 0x64 ADD PUSH2 0x62C JUMP JUMPDEST CALLER PUSH1 0x0 SWAP1 DUP2 MSTORE PUSH1 0x2 PUSH1 0x20 DUP2 DUP2 MSTORE PUSH1 0x40 DUP1 DUP5 KECCAK256 DUP1 SLOAD PUSH1 0x1 DUP1 DUP3 ADD DUP4 SSTORE DUP3 DUP8 MSTORE DUP5 DUP8 KECCAK256 PUSH1 0x8 DUP4 DIV ADD DUP1 SLOAD PUSH1 0x7 SWAP1 SWAP4 AND PUSH1 0x4 MUL PUSH2 0x100 SWAP1 DUP2 EXP PUSH4 0xFFFFFFFF DUP2 DUP2 MUL NOT SWAP1 SWAP6 AND SWAP5 DUP12 AND SWAP1 DUP2 MUL SWAP5 SWAP1 SWAP5 OR SWAP1 SWAP2 SSTORE PUSH1 0x3 SWAP1 SWAP4 ADD DUP1 SLOAD DUP1 DUP4 ADD DUP3 SSTORE SWAP1 DUP9 MSTORE DUP6 DUP9 KECCAK256 DUP7 DUP3 DIV ADD DUP1 SLOAD PUSH1 0x1F SWAP1 SWAP3 AND SWAP1 SWAP5 EXP PUSH1 0xFF MUL NOT AND SWAP1 SWAP3 SSTORE DUP6 MSTORE SWAP2 DUP3 SWAP1 MSTORE DUP4 KECCAK256 SWAP1 SWAP2 ADD DUP1 SLOAD SWAP2 SWAP3 SWAP1 SWAP2 PUSH2 0xE14 SWAP1 DUP5 SWAP1 PUSH2 0x1534 JUMP JUMPDEST SWAP1 SWAP2 SSTORE POP POP PUSH4 0xFFFFFFFF DUP2 AND PUSH1 0x0 DUP2 DUP2 MSTORE PUSH1 0x1 PUSH1 0x20 MSTORE PUSH1 0x40 SWAP1 KECCAK256 PUSH1 0x2 ADD SLOAD PUSH1 0x7 DUP1 SLOAD SWAP2 SWAP3 SWAP1 SWAP2 DUP2 LT PUSH2 0xE48 JUMPI PUSH2 0xE48 PUSH2 0x1498 JUMP JUMPDEST PUSH1 0x0 SWAP2 DUP3 MSTORE PUSH1 0x20 DUP1 DUP4 KECCAK256 SWAP1 SWAP2 ADD SWAP3 SWAP1 SWAP3 SSTORE PUSH4 0xFFFFFFFF DUP4 AND DUP1 DUP3 MSTORE PUSH1 0x1 DUP1 DUP5 MSTORE PUSH1 0x40 DUP4 KECCAK256 PUSH1 0x6 DUP2 ADD DUP1 SLOAD DUP1 DUP5 ADD DUP3 SSTORE SWAP1 DUP6 MSTORE SWAP5 DUP5 KECCAK256 SWAP1 SWAP5 ADD DUP1 SLOAD PUSH1 0x1 PUSH1 0x1 PUSH1 0xA0 SHL SUB NOT AND CALLER OR SWAP1 SSTORE SWAP2 MSTORE DUP2 ADD SLOAD PUSH1 0x2 SWAP1 SWAP2 ADD SLOAD SUB PUSH2 0x5D8 JUMPI PUSH4 0xFFFFFFFF DUP2 AND PUSH1 0x0 DUP2 DUP2 MSTORE PUSH1 0x1 PUSH1 0x20 DUP2 SWAP1 MSTORE PUSH1 0x40 SWAP1 SWAP2 KECCAK256 PUSH1 0x4 ADD DUP1 SLOAD PUSH1 0xFF NOT AND DUP3 OR SWAP1 SSTORE PUSH1 0x6 DUP1 SLOAD SWAP2 SWAP3 SWAP1 SWAP2 DUP2 LT PUSH2 0xEDB JUMPI PUSH2 0xEDB PUSH2 0x1498 JUMP JUMPDEST SWAP1 PUSH1 0x0 MSTORE PUSH1 0x20 PUSH1 0x0 KECCAK256 SWAP1 PUSH1 0x20 SWAP2 DUP3 DUP3 DIV ADD SWAP2 SWAP1 MOD PUSH2 0x100 EXP DUP2 SLOAD DUP2 PUSH1 0xFF MUL NOT AND SWAP1 DUP4 PUSH1 0xFF AND MUL OR SWAP1 SSTORE POP PUSH1 0x0 JUMPDEST PUSH4 0xFFFFFFFF DUP3 AND PUSH1 0x0 SWAP1 DUP2 MSTORE PUSH1 0x1 PUSH1 0x20 DUP2 SWAP1 MSTORE PUSH1 0x40 SWAP1 SWAP2 KECCAK256 ADD SLOAD DUP2 LT ISZERO PUSH2 0xF84 JUMPI PUSH4 0xFFFFFFFF DUP3 AND PUSH1 0x0 SWAP1 DUP2 MSTORE PUSH1 0x1 PUSH1 0x20 MSTORE PUSH1 0x40 SWAP1 KECCAK256 PUSH1 0x6 ADD DUP1 SLOAD PUSH2 0xF72 SWAP2 SWAP1 DUP4 SWAP1 DUP2 LT PUSH2 0xF58 JUMPI PUSH2 0xF58 PUSH2 0x1498 JUMP JUMPDEST PUSH1 0x0 SWAP2 DUP3 MSTORE PUSH1 0x20 SWAP1 SWAP2 KECCAK256 ADD SLOAD PUSH1 0x1 PUSH1 0x1 PUSH1 0xA0 SHL SUB AND PUSH2 0xF88 JUMP JUMPDEST DUP1 PUSH2 0xF7C DUP2 PUSH2 0x154C JUMP JUMPDEST SWAP2 POP POP PUSH2 0xF08 JUMP JUMPDEST POP POP JUMP JUMPDEST PUSH1 0x0 JUMPDEST PUSH1 0x1 PUSH1 0x1 PUSH1 0xA0 SHL SUB DUP3 AND PUSH1 0x0 SWAP1 DUP2 MSTORE PUSH1 0x2 PUSH1 0x20 MSTORE PUSH1 0x40 SWAP1 KECCAK256 SLOAD PUSH4 0xFFFFFFFF DUP3 AND LT ISZERO PUSH2 0xF84 JUMPI PUSH1 0x1 PUSH1 0x1 PUSH1 0xA0 SHL SUB DUP3 AND PUSH1 0x0 SWAP1 DUP2 MSTORE PUSH1 0x2 PUSH1 0x20 MSTORE PUSH1 0x40 DUP2 KECCAK256 DUP1 SLOAD PUSH4 0xFFFFFFFF DUP5 AND SWAP1 DUP2 LT PUSH2 0xFE1 JUMPI PUSH2 0xFE1 PUSH2 0x1498 JUMP JUMPDEST SWAP1 PUSH1 0x0 MSTORE PUSH1 0x20 PUSH1 0x0 KECCAK256 SWAP1 PUSH1 0x8 SWAP2 DUP3 DUP3 DIV ADD SWAP2 SWAP1 MOD PUSH1 0x4 MUL SWAP1 SLOAD SWAP1 PUSH2 0x100 EXP SWAP1 DIV PUSH4 0xFFFFFFFF AND SWAP1 POP PUSH1 0x2 PUSH1 0x0 DUP5 PUSH1 0x1 PUSH1 0x1 PUSH1 0xA0 SHL SUB AND PUSH1 0x1 PUSH1 0x1 PUSH1 0xA0 SHL SUB AND DUP2 MSTORE PUSH1 0x20 ADD SWAP1 DUP2 MSTORE PUSH1 0x20 ADD PUSH1 0x0 KECCAK256 PUSH1 0x3 ADD DUP3 PUSH4 0xFFFFFFFF AND DUP2 SLOAD DUP2 LT PUSH2 0x1048 JUMPI PUSH2 0x1048 PUSH2 0x1498 JUMP JUMPDEST PUSH1 0x0 SWAP2 DUP3 MSTORE PUSH1 0x20 DUP1 DUP4 KECCAK256 SWAP1 DUP3 DIV ADD SLOAD PUSH1 0xFF PUSH1 0x1F SWAP1 SWAP3 AND PUSH2 0x100 EXP SWAP1 DIV AND ISZERO ISZERO SWAP1 SUB PUSH2 0x117F JUMPI PUSH4 0xFFFFFFFF DUP2 AND PUSH1 0x0 SWAP1 DUP2 MSTORE PUSH1 0x1 PUSH1 0x20 DUP2 SWAP1 MSTORE PUSH1 0x40 SWAP1 SWAP2 KECCAK256 PUSH1 0x4 ADD SLOAD PUSH1 0xFF AND SWAP1 SUB PUSH2 0x1124 JUMPI PUSH4 0xFFFFFFFF DUP2 AND PUSH1 0x0 SWAP1 DUP2 MSTORE PUSH1 0x1 PUSH1 0x20 MSTORE PUSH1 0x40 SWAP1 KECCAK256 PUSH1 0x2 DUP2 ADD SLOAD SWAP1 SLOAD PUSH2 0x10B8 SWAP2 SWAP1 PUSH2 0x1565 JUMP JUMPDEST PUSH1 0x1 PUSH1 0x1 PUSH1 0xA0 SHL SUB DUP5 AND PUSH1 0x0 SWAP1 DUP2 MSTORE PUSH1 0x2 PUSH1 0x20 DUP2 SWAP1 MSTORE PUSH1 0x40 DUP3 KECCAK256 ADD DUP1 SLOAD SWAP1 SWAP2 SWAP1 PUSH2 0x10E3 SWAP1 DUP5 SWAP1 PUSH2 0x1534 JUMP JUMPDEST SWAP1 SWAP2 SSTORE POP POP PUSH1 0x1 PUSH1 0x1 PUSH1 0xA0 SHL SUB DUP4 AND PUSH1 0x0 SWAP1 DUP2 MSTORE PUSH1 0x2 PUSH1 0x20 MSTORE PUSH1 0x40 SWAP1 KECCAK256 PUSH1 0x3 ADD DUP1 SLOAD PUSH4 0xFFFFFFFF DUP5 AND SWAP1 DUP2 LT PUSH2 0x111B JUMPI PUSH2 0x111B PUSH2 0x1498 JUMP JUMPDEST POP PUSH1 0x0 MSTORE PUSH2 0x117F JUMP JUMPDEST PUSH4 0xFFFFFFFF DUP2 AND PUSH1 0x0 SWAP1 DUP2 MSTORE PUSH1 0x1 PUSH1 0x20 MSTORE PUSH1 0x40 SWAP1 KECCAK256 PUSH1 0x4 ADD SLOAD PUSH1 0xFF AND PUSH1 0x2 SUB PUSH2 0x117F JUMPI PUSH1 0x1 PUSH1 0x1 PUSH1 0xA0 SHL SUB DUP4 AND PUSH1 0x0 SWAP1 DUP2 MSTORE PUSH1 0x2 PUSH1 0x20 MSTORE PUSH1 0x40 SWAP1 KECCAK256 PUSH1 0x3 ADD DUP1 SLOAD PUSH4 0xFFFFFFFF DUP5 AND SWAP1 DUP2 LT PUSH2 0x117A JUMPI PUSH2 0x117A PUSH2 0x1498 JUMP JUMPDEST POP PUSH1 0x0 MSTORE JUMPDEST POP DUP1 PUSH2 0x118A DUP2 PUSH2 0x14AE JUMP JUMPDEST SWAP2 POP POP PUSH2 0xF8B JUMP JUMPDEST PUSH1 0x4 DUP2 DUP2 SLOAD DUP2 LT PUSH2 0x11A2 JUMPI PUSH1 0x0 DUP1 REVERT JUMPDEST PUSH1 0x0 SWAP2 DUP3 MSTORE PUSH1 0x20 SWAP1 SWAP2 KECCAK256 ADD SLOAD SWAP1 POP DUP2 JUMP JUMPDEST PUSH1 0x0 SLOAD PUSH1 0x1 PUSH1 0x1 PUSH1 0xA0 SHL SUB AND CALLER EQ PUSH2 0x120D JUMPI PUSH1 0x40 MLOAD PUSH3 0x461BCD PUSH1 0xE5 SHL DUP2 MSTORE PUSH1 0x20 PUSH1 0x4 DUP3 ADD DUP2 SWAP1 MSTORE PUSH1 0x24 DUP3 ADD MSTORE PUSH32 0x4F776E61626C653A2063616C6C6572206973206E6F7420746865206F776E6572 PUSH1 0x44 DUP3 ADD MSTORE PUSH1 0x64 ADD PUSH2 0x62C JUMP JUMPDEST PUSH1 0x1 PUSH1 0x1 PUSH1 0xA0 SHL SUB DUP2 AND PUSH2 0x1272 JUMPI PUSH1 0x40 MLOAD PUSH3 0x461BCD PUSH1 0xE5 SHL DUP2 MSTORE PUSH1 0x20 PUSH1 0x4 DUP3 ADD MSTORE PUSH1 0x26 PUSH1 0x24 DUP3 ADD MSTORE PUSH32 0x4F776E61626C653A206E6577206F776E657220697320746865207A65726F2061 PUSH1 0x44 DUP3 ADD MSTORE PUSH6 0x646472657373 PUSH1 0xD0 SHL PUSH1 0x64 DUP3 ADD MSTORE PUSH1 0x84 ADD PUSH2 0x62C JUMP JUMPDEST PUSH2 0x5D8 DUP2 JUMPDEST PUSH1 0x0 DUP1 SLOAD PUSH1 0x1 PUSH1 0x1 PUSH1 0xA0 SHL SUB DUP4 DUP2 AND PUSH1 0x1 PUSH1 0x1 PUSH1 0xA0 SHL SUB NOT DUP4 AND DUP2 OR DUP5 SSTORE PUSH1 0x40 MLOAD SWAP2 SWAP1 SWAP3 AND SWAP3 DUP4 SWAP2 PUSH32 0x8BE0079C531659141344CD1FD0A4F28419497F9722A3DAAFE3B4186F6B6457E0 SWAP2 SWAP1 LOG3 POP POP JUMP JUMPDEST PUSH1 0x0 PUSH1 0x20 DUP3 DUP5 SUB SLT ISZERO PUSH2 0x12D9 JUMPI PUSH1 0x0 DUP1 REVERT JUMPDEST POP CALLDATALOAD SWAP2 SWAP1 POP JUMP JUMPDEST PUSH1 0x0 PUSH1 0x20 DUP3 DUP5 SUB SLT ISZERO PUSH2 0x12F2 JUMPI PUSH1 0x0 DUP1 REVERT JUMPDEST DUP2 CALLDATALOAD PUSH1 0x1 PUSH1 0x1 PUSH1 0xA0 SHL SUB DUP2 AND DUP2 EQ PUSH2 0x1309 JUMPI PUSH1 0x0 DUP1 REVERT JUMPDEST SWAP4 SWAP3 POP POP POP JUMP JUMPDEST PUSH1 0x20 DUP1 DUP3 MSTORE DUP3 MLOAD DUP3 DUP3 ADD DUP2 SWAP1 MSTORE PUSH1 0x0 SWAP2 SWAP1 DUP5 DUP3 ADD SWAP1 PUSH1 0x40 DUP6 ADD SWAP1 DUP5 JUMPDEST DUP2 DUP2 LT ISZERO PUSH2 0x134E JUMPI DUP4 MLOAD PUSH4 0xFFFFFFFF AND DUP4 MSTORE SWAP3 DUP5 ADD SWAP3 SWAP2 DUP5 ADD SWAP2 PUSH1 0x1 ADD PUSH2 0x132C JUMP JUMPDEST POP SWAP1 SWAP7 SWAP6 POP POP POP POP POP POP JUMP JUMPDEST PUSH1 0x0 PUSH1 0x20 DUP3 DUP5 SUB SLT ISZERO PUSH2 0x136C JUMPI PUSH1 0x0 DUP1 REVERT JUMPDEST DUP2 CALLDATALOAD PUSH4 0xFFFFFFFF DUP2 AND DUP2 EQ PUSH2 0x1309 JUMPI PUSH1 0x0 DUP1 REVERT JUMPDEST PUSH1 0x0 DUP1 PUSH1 0x0 PUSH1 0x60 DUP5 DUP7 SUB SLT ISZERO PUSH2 0x1395 JUMPI PUSH1 0x0 DUP1 REVERT JUMPDEST POP POP DUP2 CALLDATALOAD SWAP4 PUSH1 0x20 DUP4 ADD CALLDATALOAD SWAP4 POP PUSH1 0x40 SWAP1 SWAP3 ADD CALLDATALOAD SWAP2 SWAP1 POP JUMP JUMPDEST PUSH1 0x0 DUP2 MLOAD DUP1 DUP5 MSTORE PUSH1 0x20 DUP1 DUP6 ADD SWAP5 POP DUP1 DUP5 ADD PUSH1 0x0 JUMPDEST DUP4 DUP2 LT ISZERO PUSH2 0x13DC JUMPI DUP2 MLOAD DUP8 MSTORE SWAP6 DUP3 ADD SWAP6 SWAP1 DUP3 ADD SWAP1 PUSH1 0x1 ADD PUSH2 0x13C0 JUMP JUMPDEST POP SWAP5 SWAP6 SWAP5 POP POP POP POP POP JUMP JUMPDEST PUSH1 0x80 DUP1 DUP3 MSTORE DUP6 MLOAD SWAP1 DUP3 ADD DUP2 SWAP1 MSTORE PUSH1 0x0 SWAP1 PUSH1 0x20 SWAP1 PUSH1 0xA0 DUP5 ADD SWAP1 DUP3 DUP10 ADD DUP5 JUMPDEST DUP3 DUP2 LT ISZERO PUSH2 0x1423 JUMPI DUP2 MLOAD PUSH1 0xFF AND DUP5 MSTORE SWAP3 DUP5 ADD SWAP3 SWAP1 DUP5 ADD SWAP1 PUSH1 0x1 ADD PUSH2 0x1404 JUMP JUMPDEST POP POP POP DUP4 DUP2 SUB DUP3 DUP6 ADD MSTORE PUSH2 0x1437 DUP2 DUP9 PUSH2 0x13AC JUMP JUMPDEST SWAP2 POP POP DUP3 DUP2 SUB PUSH1 0x40 DUP5 ADD MSTORE PUSH2 0x144C DUP2 DUP7 PUSH2 0x13AC JUMP JUMPDEST SWAP1 POP DUP3 DUP2 SUB PUSH1 0x60 DUP5 ADD MSTORE PUSH2 0x1460 DUP2 DUP6 PUSH2 0x13AC JUMP JUMPDEST SWAP8 SWAP7 POP POP POP POP POP POP POP JUMP JUMPDEST PUSH4 0x4E487B71 PUSH1 0xE0 SHL PUSH1 0x0 MSTORE PUSH1 0x11 PUSH1 0x4 MSTORE PUSH1 0x24 PUSH1 0x0 REVERT JUMPDEST PUSH1 0x0 DUP3 DUP3 LT ISZERO PUSH2 0x1493 JUMPI PUSH2 0x1493 PUSH2 0x146B JUMP JUMPDEST POP SUB SWAP1 JUMP JUMPDEST PUSH4 0x4E487B71 PUSH1 0xE0 SHL PUSH1 0x0 MSTORE PUSH1 0x32 PUSH1 0x4 MSTORE PUSH1 0x24 PUSH1 0x0 REVERT JUMPDEST PUSH1 0x0 PUSH4 0xFFFFFFFF DUP1 DUP4 AND DUP2 DUP2 SUB PUSH2 0x14C7 JUMPI PUSH2 0x14C7 PUSH2 0x146B JUMP JUMPDEST PUSH1 0x1 ADD SWAP4 SWAP3 POP POP POP JUMP JUMPDEST PUSH1 0x0 PUSH1 0x20 DUP3 DUP5 SUB SLT ISZERO PUSH2 0x14E3 JUMPI PUSH1 0x0 DUP1 REVERT JUMPDEST DUP2 MLOAD DUP1 ISZERO ISZERO DUP2 EQ PUSH2 0x1309 JUMPI PUSH1 0x0 DUP1 REVERT JUMPDEST PUSH1 0x0 PUSH1 0x20 DUP3 DUP5 SUB SLT ISZERO PUSH2 0x1505 JUMPI PUSH1 0x0 DUP1 REVERT JUMPDEST POP MLOAD SWAP2 SWAP1 POP JUMP JUMPDEST PUSH1 0x0 PUSH4 0xFFFFFFFF DUP1 DUP4 AND DUP2 DUP6 AND DUP1 DUP4 SUB DUP3 GT ISZERO PUSH2 0x152B JUMPI PUSH2 0x152B PUSH2 0x146B JUMP JUMPDEST ADD SWAP5 SWAP4 POP POP POP POP JUMP JUMPDEST PUSH1 0x0 DUP3 NOT DUP3 GT ISZERO PUSH2 0x1547 JUMPI PUSH2 0x1547 PUSH2 0x146B JUMP JUMPDEST POP ADD SWAP1 JUMP JUMPDEST PUSH1 0x0 PUSH1 0x1 DUP3 ADD PUSH2 0x155E JUMPI PUSH2 0x155E PUSH2 0x146B JUMP JUMPDEST POP PUSH1 0x1 ADD SWAP1 JUMP JUMPDEST PUSH1 0x0 DUP3 PUSH2 0x1582 JUMPI PUSH4 0x4E487B71 PUSH1 0xE0 SHL PUSH1 0x0 MSTORE PUSH1 0x12 PUSH1 0x4 MSTORE PUSH1 0x24 PUSH1 0x0 REVERT JUMPDEST POP DIV SWAP1 JUMP INVALID LOG2 PUSH5 0x6970667358 0x22 SLT KECCAK256 0xC9 SELFBALANCE 0x2D PUSH19 0x697B8BD9A37D32D1DE04A42D6BD74B9423811 GT 0xAD 0xAB 0xBE 0xE1 0xB4 0xDE XOR 0xED PUSH5 0x736F6C6343 STOP ADDMOD 0xF STOP CALLER ","sha1":"279656fcfb96daf19359401717c97ee1c226e1e6","source":"// SPDX-License-Identifier: MIT\n\npragma solidity >=0.6.0 <0.9.0;\nimport \"@openzeppelin/contracts/access/Ownable.sol\";\nimport \"@openzeppelin/contracts/token/ERC20/IERC20.sol\";\n\ncontract MainRouter is Ownable {\n    //    using SafeMathChainlink for uint256;\n\n    struct QuestionsStruct {\n        uint256 totalRewards;\n        uint256 maxAnswers;\n        uint256 numberOfAnswers;\n        uint256 deadLine;\n        uint8 status;\n        uint256 timeCreated;\n        address[] whoAnswered;\n        address creator;\n    }\n\n    struct UserStruct {\n        uint32[] questionsAnswered;\n        uint32[] questionsCreated;\n        uint256 totalRewards;\n        bool[] rewardsCounted;\n    }\n\n    mapping(uint32 => QuestionsStruct) public question;\n    mapping(address => UserStruct) public user;\n    address[] public answers;\n    uint256[] public questionList;\n    uint32 public questionId;\n    uint8[] questionStatusList;\n    uint256[] questionAnsweredList;\n    uint256[] questionMaxAnswersList;\n    uint256[] questionRewardsList;\n    IERC20 public OTToken;\n\n    constructor(address _ourTokenAddress) public {\n        OTToken = IERC20(_ourTokenAddress);\n        uint32 questionCount = 0;\n    }\n\n    function stake(\n        uint256 _totalRewards,\n        uint256 _maxAnswers,\n        uint256 _deadLine\n    ) public payable {\n        uint256 minStake = 10000000000000000;\n        uint256 minDeadLine = 10;\n\n        require(\n            OTToken.balanceOf(msg.sender) > _totalRewards,\n            \"Insufficient Balance!\"\n        );\n        require(_totalRewards >= minStake, \"You need to spend more token!\");\n        require(_deadLine >= minDeadLine, \"Deadline too close!\");\n        OTToken.transferFrom(msg.sender, address(this), _totalRewards);\n        question[questionId].totalRewards = _totalRewards;\n        question[questionId].maxAnswers = _maxAnswers;\n        question[questionId].deadLine = _deadLine;\n        question[questionId].status = 0;\n        question[questionId].timeCreated = block.timestamp;\n        question[questionId].creator = msg.sender;\n        question[questionId].numberOfAnswers = 0;\n        user[msg.sender].questionsCreated.push(questionId);\n        questionStatusList.push(0);\n        questionMaxAnswersList.push(_maxAnswers);\n        questionAnsweredList.push(0);\n        questionRewardsList.push(_totalRewards);\n        questionId += 1;\n    }\n\n    function getNumberOfQuestions() public view returns (uint32) {\n        return questionId;\n    }\n\n    function getQuestionsStatus()\n        public\n        view\n        returns (\n            uint8[] memory,\n            uint256[] memory,\n            uint256[] memory,\n            uint256[] memory\n        )\n    {\n        return (\n            questionStatusList,\n            questionAnsweredList,\n            questionMaxAnswersList,\n            questionRewardsList\n        );\n    }\n\n    function getMyAnsweredQuestions(address _account)\n        public\n        view\n        returns (uint32[] memory)\n    {\n        return user[_account].questionsAnswered;\n    }\n\n    function getMyCreatedQuestions(address _account)\n        public\n        view\n        returns (uint32[] memory)\n    {\n        return user[_account].questionsCreated;\n    }\n\n    function answer(uint32 _questionId) public {\n        require(_questionId < questionId, \"Question not found!\");\n        require(\n            question[_questionId].status == 0,\n            \"Question closed or expired!\"\n        );\n        user[msg.sender].questionsAnswered.push(_questionId);\n        user[msg.sender].rewardsCounted.push(false);\n        question[_questionId].numberOfAnswers += 1;\n        questionAnsweredList[_questionId] = question[_questionId]\n            .numberOfAnswers;\n        question[_questionId].whoAnswered.push(msg.sender);\n        if (\n            question[_questionId].numberOfAnswers ==\n            question[_questionId].maxAnswers\n        ) {\n            question[_questionId].status = 1;\n            questionStatusList[_questionId] = 1;\n            for (uint256 id = 0; id < question[_questionId].maxAnswers; id++) {\n                updateMyRewards(question[_questionId].whoAnswered[id]);\n            }\n        }\n    }\n\n    function updateQuestionStatus() public {\n        for (uint32 id = 0; id < questionId; id++) {\n            if (question[id].status == 0) {\n                if (\n                    block.timestamp - question[id].timeCreated >\n                    question[id].deadLine\n                ) {\n                    question[id].status = 2;\n                    questionStatusList[id] = 2;\n                }\n            }\n        }\n    }\n\n    function updateMyRewards(address _account) public {\n        for (\n            uint32 id = 0;\n            id < user[_account].questionsAnswered.length;\n            id++\n        ) {\n            uint32 qId = user[_account].questionsAnswered[id];\n            if (user[_account].rewardsCounted[id] == false) {\n                if (question[qId].status == 1) {\n                    user[_account].totalRewards +=\n                        question[qId].totalRewards /\n                        question[qId].numberOfAnswers;\n                    user[_account].rewardsCounted[id] == true;\n                } else if (question[qId].status == 2) {\n                    user[_account].rewardsCounted[id] == true;\n                }\n            }\n        }\n    }\n\n    function myRewards(address _user) public view returns (uint256) {\n        return user[_user].totalRewards;\n    }\n\n    function claimRewards() public payable {\n        uint256 amount = user[msg.sender].totalRewards;\n        require(amount > 0, \"No rewards found!\");\n        OTToken.transfer(msg.sender, amount);\n        user[msg.sender].totalRewards = 0;\n    }\n    //answers arrary needs to be modified after claim\n}\n","sourcePath":"contracts/MainRouter.sol","type":"contract","deployment":{"address":"0xF5f9d961Bd8E2c4772Ca40F5277941209341D524","chainid":"4","blockHeight":11220532}}